:100000000C942A000C9447000C9447000C94470071
:100010000C9447000C9447000C9447000C94470044
:100020000C9447000C9447000C9447000C94470034
:100030000C9447000C9447000C9447000C94470024
:100040000C9447000C9447000C9447000C94470014
:100050000C94470011241FBECFE5D8E0DEBFCDBF12
:1000600010E0A0E6B0E0EEE2FEE202C005900D92E4
:10007000AA3BB107D9F710E0AAEBB0E001C01D928E
:10008000AE3BB107E1F70E94B9140C9415170C941C
:100090000000EF92FF920F931F937B018C0120E0F1
:1000A00030E040E05FE40E94F50388238CF0C80153
:1000B000B70120E030E040E05FE40E94C1010E940F
:1000C00055049B01AC01205030404040504806C0D0
:1000D000C801B7010E9455049B01AC01B901CA01D6
:1000E0001F910F91FF90EF900895A0E0B0E0EBE733
:1000F000F0E00C94DE16DC012B01FA019C919230A9
:1001000008F439C1EB018881823008F433C194309E
:1001100069F4843009F02FC111969C91119789815F
:10012000981709F428C1A9EAB0E025C1843009F480
:1001300021C18230A9F4923009F01DC19A01AD01AC
:1001400088E0EA010990AE01E90109929E0181501F
:10015000C1F7E201898111969C918923818308C1AD
:10016000923009F407C112962D903C901397EB0141
:100170008A819B811496AD90BD90CD90DC901797AD
:10018000EC80FD800E811F819101281B390BB90184
:1001900037FF04C066277727621B730B6032710537
:1001A0000CF061C0121613066CF537014801062EDB
:1001B00004C096948794779467940A94D2F721E0C8
:1001C00030E040E050E004C0220F331F441F551FB1
:1001D0006A95D2F721503040404050402E213F21B7
:1001E00040235123211531054105510521F021E01E
:1001F00030E040E050E079018A01E628F72808293C
:1002000019293CC0232BD1F1260E371E350146019A
:10021000062E04C096948794779467940A94D2F734
:1002200021E030E040E050E004C0220F331F441FC3
:10023000551F6A95D2F721503040404050402A2146
:100240003B214C215D21211531054105510521F04E
:1002500021E030E040E050E059016A01A628B728CB
:10026000C828D9280BC0821593052CF01C01AA249C
:10027000BB24650103C0EE24FF24870111969C91E5
:10028000D20111968C91981709F445C0992339F041
:10029000A80197012A193B094C095D0906C0A6016E
:1002A00095012E193F09400B510B57FD08C01182D3
:1002B0003382228224833583468357831DC081E0A5
:1002C00081833382228288279927DC01821B930B4A
:1002D000A40BB50B84839583A683B7830DC0220F2F
:1002E000331F441F551F24833583468357838281E0
:1002F000938101979383828324813581468157813D
:10030000DA01C9010197A109B1098F5F9F4FAF4F72
:10031000BF4328F30BC0918333822282EA0CFB1C7B
:100320000C1D1D1DE482F5820683178383E0808304
:10033000248135814681578157FF1AC0C901AA27F8
:1003400097FDA095BA2F81709070A070B0705695EF
:10035000479537952795822B932BA42BB52B848318
:100360009583A683B7838281938101969383828349
:10037000DF0101C0D201CD01CDB7DEB7E2E10C94BF
:10038000FA16A0E2B0E0E7ECF1E00C94EA1669831B
:100390007A838B839C832D833E834F835887E9E048
:1003A000EE2EF12CEC0EFD1ECE010196B7010E943F
:1003B0007E058E010F5E1F4FCE010596B8010E948B
:1003C0007E058A8991E089278A8BC701B801AE0131
:1003D000475E5F4F0E9475000E94A904A096E6E068
:1003E0000C940617A0E2B0E0E8EFF1E00C94EA16F6
:1003F00069837A838B839C832D833E834F835887C5
:10040000F9E0EF2EF12CEC0EFD1ECE010196B701A6
:100410000E947E058E010F5E1F4FCE010596B8012A
:100420000E947E05C701B801AE01475E5F4F0E9482
:1004300075000E94A904A096E6E00C940617A0E2BD
:10044000B0E0E5E2F2E00C94DE1669837A838B83F8
:100450009C832D833E834F835887CE010196BE0136
:10046000675F7F4F0E947E05CE010596BE016F5EDD
:100470007F4F0E947E059985923088F0898982306D
:10048000C8F0943019F4823051F404C0843029F457
:10049000923081F489EA90E0C6C0923049F420E0BD
:1004A0009A858A89981321E02A87CE010996BBC0D4
:1004B000823049F420E09A858A89981321E02A8BBA
:1004C000CE014196B0C02D843E844F8458886D88FB
:1004D0007E888F88988CEE24FF248701AA24BB2471
:1004E000650140E050E060E070E0E0E0F0E0C10174
:1004F00081709070892BE9F0E60CF71C081D191D1E
:100500009A01AB012A0D3B1D4C1D5D1D80E090E062
:10051000A0E0B0E0E614F7040805190520F481E036
:1005200090E0A0E0B0E0BA01A901480F591F6A1F8E
:100530007B1FAA0CBB1CCC1CDD1C97FE08C081E0F5
:1005400090E0A0E0B0E0A82AB92ACA2ADB2A3196B6
:10055000E032F10549F0660C771C881C991C569412
:10056000479437942794C3CFFA85EA892B893C892D
:100570008B859C85280F391F2E5F3F4F17C0CA01FE
:1005800081709070892B61F016950795F794E79428
:1005900080E090E0A0E0B0E8E82AF92A0A2B1B2BC3
:1005A00076956795579547952F5F3F4F77FDE7CF36
:1005B0000CC0440F551F661F771F17FD4160EE0CDE
:1005C000FF1C001F111F21503040403090E05907A0
:1005D00090E0690790E4790760F32B8F3C8FDB0193
:1005E000CA018F779070A070B07080349105A1051A
:1005F000B10561F447FD0AC0E114F10401051105DC
:1006000029F0405C5F4F6F4F7F4F40781A8EFE1786
:1006100011F081E08A8F4D8F5E8F6F8F78A383E01A
:10062000898FCE0149960E94A904A096E2E10C941C
:10063000FA16A8E1B0E0EFE1F3E00C94E616698366
:100640007A838B839C832D833E834F835887B9E0C5
:10065000EB2EF12CEC0EFD1ECE010196B7010E948F
:100660007E058E010F5E1F4FCE010596B8010E94D8
:100670007E052985223008F47EC03989323010F495
:10068000B8017CC08A859A8989278A87243011F02D
:10069000223031F4231709F06EC069EA70E06EC0B1
:1006A000343039F41D861E861F86188A1C861B86E8
:1006B00004C0323021F484E08987B7015FC02B8504
:1006C0003C858B899C89281B390B3C872B87ED84C3
:1006D000FE840F851889AD88BE88CF88D88CEA142F
:1006E000FB040C051D0540F4EE0CFF1C001F111F40
:1006F000215030403C872B8720E030E040E050E044
:1007000080E090E0A0E0B0E460E070E0EA14FB0478
:100710000C051D0540F0282B392B4A2B5B2BEA18C2
:10072000FB080C091D09B695A79597958795EE0CC2
:10073000FF1C001F111F6F5F7F4F6F31710531F775
:10074000DA01C9018F779070A070B0708034910584
:10075000A105B10561F427FD0AC0E114F10401050A
:10076000110529F0205C3F4F4F4F5F4F20782D87B8
:100770003E874F87588BBE01675F7F4FCB010E943A
:10078000A9046896EAE00C940217A8E1B0E0EBEC4B
:10079000F3E00C94EA1669837A838B839C832D8320
:1007A0003E834F83588789E0E82EF12CEC0EFD1E26
:1007B000CE010196B7010E947E058E010F5E1F4F8C
:1007C000CE010596B8010E947E058985823040F0F1
:1007D0008989823028F0C701B8010E94F60501C05E
:1007E0008FEF6896E6E00C940617A8E1B0E0EBEF17
:1007F000F3E00C94EA1669837A838B839C832D83C0
:100800003E834F83588789E0E82EF12CEC0EFD1EC5
:10081000CE010196B7010E947E058E010F5E1F4F2B
:10082000CE010596B8010E947E058985823040F090
:100830008989823028F0C701B8010E94F60501C0FD
:100840008FEF6896E6E00C940617A8E1B0E0EBE2C3
:10085000F4E00C94EA1669837A838B839C832D835E
:100860003E834F83588789E0E82EF12CEC0EFD1E65
:10087000CE010196B7010E947E058E010F5E1F4FCB
:10088000CE010596B8010E947E058985823040F030
:100890008989823028F0C701B8010E94F60501C09D
:1008A00081E06896E6E00C940617ACE0B0E0EBE57A
:1008B000F4E00C94EE1669837A838B839C83CE01DB
:1008C0000196BE016B5F7F4F0E947E058D81823055
:1008D00061F1823050F1843021F48E81882351F10E
:1008E0002EC02F81388537FD20C06E812F31310514
:1008F0001CF06623F9F023C08EE190E0821B930B7D
:1009000029853A854B855C8504C056954795379572
:1009100027958A95D2F76623B1F05095409530958A
:1009200021953F4F4F4F5F4F0EC020E030E040E039
:1009300050E009C02FEF3FEF4FEF5FE704C020E02A
:1009400030E040E050E8B901CA012C96E2E00C9496
:100950000A17DF92EF92FF920F931F93FC01E4803E
:10096000F58006811781D1808081823048F480E053
:1009700090E0A0E1B0E0E82AF92A0A2B1B2BA5C0E1
:10098000843009F49FC0823021F4EE24FF248701D3
:1009900005C0E114F1040105110519F4E0E0F0E0EF
:1009A00096C0628173819FEF623879070CF05BC05B
:1009B00022E83FEF261B370B2A3131052CF020E0CF
:1009C00030E040E050E02AC0B801A701022E04C088
:1009D00076956795579547950A94D2F781E090E010
:1009E000A0E0B0E004C0880F991FAA1FBB1F2A9582
:1009F000D2F70197A109B1098E219F21A023B1232C
:100A00000097A105B10521F081E090E0A0E0B0E001
:100A10009A01AB01282B392B4A2B5B2BDA01C90138
:100A20008F779070A070B07080349105A105B105EA
:100A300039F427FF09C0205C3F4F4F4F5F4F04C080
:100A4000215C3F4F4F4F5F4FE0E0F0E02030A0E0EF
:100A50003A07A0E04A07A0E45A0710F0E1E0F0E00E
:100A600079018A0127C06038710564F5FB01E158FE
:100A7000FF4FD801C7018F779070A070B07080349D
:100A80009105A105B10539F4E7FE0DC080E490E0C1
:100A9000A0E0B0E004C08FE390E0A0E0B0E0E80E9A
:100AA000F91E0A1F1B1F17FF05C016950795F7941F
:100AB000E794319687E016950795F794E7948A9521
:100AC000D1F705C0EE24FF248701EFEFF0E06E2F91
:100AD000679566276795902F9F77D794DD24D794E5
:100AE0008E2F8695492F462B582F5D29B701CA01B5
:100AF0001F910F91FF90EF90DF900895FC01DB01B3
:100B0000408151812281622F6F7770E0221F22275E
:100B1000221F9381892F880F822B282F30E0991F65
:100B20009927991F11969C93119721153105A9F5C5
:100B3000411551056105710511F482E037C082E865
:100B40009FEF13969C938E9312979A01AB0167E0E7
:100B5000220F331F441F551F6A95D1F783E08C93F2
:100B60000DC0220F331F441F551F12968D919C916B
:100B70001397019713969C938E931297203080E0E1
:100B8000380780E0480780E4580758F314962D93FF
:100B90003D934D935C93179708952F3F310579F45A
:100BA000411551056105710519F484E08C93089590
:100BB00064FF03C081E08C9312C01C9210C02F57B9
:100BC000304013963C932E93129783E08C9387E0EA
:100BD000440F551F661F771F8A95D1F770641496CE
:100BE0004D935D936D937C93179708951F93DC014C
:100BF000FB019C91923008F447C08081823008F458
:100C000043C0943051F411961C91843099F5818140
:100C1000682F70E0611B71093FC0843021F0923071
:100C200031F48230B9F18181882389F12DC0119688
:100C30001C9111978230F1F081811817D9F4129626
:100C40002D913C911397828193818217930794F0A1
:100C500028173907BCF014968D919D910D90BC9189
:100C6000A02D2481358146815781281739074A07ED
:100C70005B0718F4112341F00AC082179307A407F9
:100C8000B50740F4112319F061E070E005C06FEF83
:100C90007FEF02C060E070E0CB011F910895DF9309
:100CA000CF93CDB7DEB7A1E2B0E0E1E2F0E0808122
:100CB0008D7F8C93A1E2B0E0E1E2F0E080818E7F55
:100CC0008C93E0E2F0E082E08083A6E5B0E0E6E528
:100CD000F0E0808180648C93A6E5B0E0E6E5F0E08A
:100CE000808184608C93CF91DF910895DF93CF93BF
:100CF0000F92CDB7DEB7898389818823B1F08981CE
:100D00008F3798F4E3E2F0E08981880F8083A6E5CD
:100D1000B0E0E6E5F0E0808180648C93A6E5B0E089
:100D2000E6E5F0E0808184608C930F90CF91DF91B5
:100D30000895DF93CF9300D0CDB7DEB781E08983EC
:100D4000A6E5B0E0E6E5F0E0808180628C93A6E560
:100D5000B0E0E6E5F0E0808180688C93E6E5F0E0C5
:100D600080818823DCF7E1E2F0E08081882F90E049
:100D7000887F90708830910521F4198289818A8357
:100D800002C089818A838A810F900F90CF91DF9171
:100D90000895DF93CF9300D0CDB7DEB78A8383E089
:100DA0008983E3E2F0E08A81880F8083A3E2B0E0E8
:100DB000E3E2F0E080818E7F8C93A6E5B0E0E6E58B
:100DC000F0E080818F7D8C93A6E5B0E0E6E5F0E071
:100DD000808180688C93E6E5F0E080818823DCF7F1
:100DE000E1E2F0E08081882F90E0887F9070883188
:100DF000910509F4198289810F900F90CF91DF91AD
:100E00000895DF93CF9300D0CDB7DEB78A8384E017
:100E10008983E3E2F0E08A81880F8083A3E2B0E077
:100E2000E3E2F0E0808181608C93A6E5B0E0E6E546
:100E3000F0E080818F7D8C93A6E5B0E0E6E5F0E000
:100E4000808180688C93E6E5F0E080818823DCF780
:100E5000E1E2F0E08081882F90E0887F907080341C
:100E6000910509F4198289810F900F90CF91DF913C
:100E70000895DF93CF9300D0CDB7DEB78A8385E0A6
:100E80008983E3E2F0E08A818083A6E5B0E0E6E5CD
:100E9000F0E0808180688C93E6E5F0E08081882333
:100EA000DCF7E1E2F0E08081882F90E0887F9070AD
:100EB0008832910509F4198289810F900F90CF91A2
:100EC000DF910895DF93CF9300D00F92CDB7DEB7B7
:100ED0009B838A8386E08983A6E5B0E0E6E5F0E0BF
:100EE000808180688C93E6E5F0E080818823DCF7E0
:100EF000E1E2F0E08081882F90E0887F907080357B
:100F0000910539F4E3E2F0E08081EA81FB8180839E
:100F1000198289810F900F900F90CF91DF910895E2
:100F2000DF93CF930F92CDB7DEB786E08983A6E536
:100F3000B0E0E6E5F0E0808180648C93A6E5B0E067
:100F4000E6E5F0E0808180688C93E6E5F0E0808162
:100F50008823DCF7E1E2F0E08081882F90E0887F51
:100F600090708035910521F4E3E2F0E0808189837F
:100F700089810F90CF91DF910895DF93CF930F92E6
:100F8000CDB7DEB786E08983A6E5B0E0E6E5F0E020
:100F900080818F7B8C93A6E5B0E0E6E5F0E0808170
:100FA00080688C93E6E5F0E080818823DCF7E3E25B
:100FB000F0E08081898389810F90CF91DF9108953E
:100FC000DF93CF930F92CDB7DEB782E08983A6E59A
:100FD000B0E0E6E5F0E0808180628C93A6E5B0E0C9
:100FE000E6E5F0E0808180688C93E6E5F0E08081C2
:100FF0008823DCF7E1E2F0E08081882F90E0887FB1
:1010000090708830910509F4198289810F90CF91F1
:10101000DF910895DF93CF93CDB7DEB7A6E5B0E0BB
:10102000E6E5F0E0808180618C93A6E5B0E0E6E53E
:10103000F0E0808180688C93CF91DF910895DF93F9
:10104000CF9300D0CDB7DEB78A8387E08983E3E210
:10105000F0E08A818083A6E5B0E0E6E5F0E08081FB
:1010600080688C93E6E5F0E080818823DCF7E1E29C
:10107000F0E08081882F90E0887F9070883B910518
:1010800009F4198289810F900F90CF91DF91089513
:10109000DF93CF9300D00F92CDB7DEB79B838A83C7
:1010A00088E08983A6E5B0E0E6E5F0E0808180682D
:1010B0008C93E6E5F0E080818823DCF7E1E2F0E064
:1010C0008081882F90E0887F90708038910539F476
:1010D000E3E2F0E08081EA81FB81808319828981EB
:1010E0000F900F900F90CF91DF910895DF93CF93E2
:1010F000CDB7DEB7EAE3F0E08FEF8083E7E3F0E01F
:101100008FEF8083E4E3F0E087EF8083E1E3F0E0BA
:101110008FEF8083EBE3F0E01082E8E3F0E01082F1
:10112000E5E3F0E088E08083E2E3F0E01082CF9135
:10113000DF910895DF93CF93CDB7DEB728970FB631
:10114000F894DEBF0FBECDBF8A836B834C831982B8
:101150008A81843008F0F2C08B81883008F0EEC0BC
:1011600081E089838C81882309F06FC08A81282FD0
:1011700030E038872F838F8198858130910549F140
:101180002F813885223031052CF48F819885009786
:1011900061F0D4C02F8138852230310571F18F8103
:1011A000988583309105E9F1C9C0AAE3B0E0EAE38C
:1011B000F0E08081482F8B81282F30E081E090E0A3
:1011C000022E02C0880F991F0A94E2F7842B8C9399
:1011D000B5C0A7E3B0E0E7E3F0E08081482F8B8162
:1011E000282F30E081E090E0022E02C0880F991F86
:1011F0000A94E2F7842B8C93A1C0A4E3B0E0E4E36B
:10120000F0E08081482F8B81282F30E081E090E052
:10121000022E02C0880F991F0A94E2F7842B8C9348
:101220008DC0A1E3B0E0E1E3F0E08081482F8B8145
:10123000282F30E081E090E0022E02C0880F991F35
:101240000A94E2F7842B8C9379C08C81813009F069
:1012500074C08A81282F30E03E832D838D819E814A
:101260008130910559F12D813E81223031052CF4D8
:101270008D819E81009769F061C02D813E81223071
:10128000310589F18D819E818330910509F440C03B
:1012900055C0AAE3B0E0EAE3F0E08081482F8B81FB
:1012A000282F30E081E090E0022E02C0880F991FC5
:1012B0000A94E2F7809584238C9340C0A7E3B0E0C2
:1012C000E7E3F0E08081482F8B81282F30E081E038
:1012D00090E0022E02C0880F991F0A94E2F78095D1
:1012E00084238C932BC0A4E3B0E0E4E3F0E080819E
:1012F000482F8B81282F30E081E090E0022E02C041
:10130000880F991F0A94E2F7809584238C9316C066
:10131000A1E3B0E0E1E3F0E08081482F8B81282F4A
:1013200030E081E090E0022E02C0880F991F0A94FD
:10133000E2F7809584238C9301C0198289812896D5
:101340000FB6F894DEBF0FBECDBFCF91DF910895E9
:10135000DF93CF93CDB7DEB728970FB6F894DEBFF3
:101360000FBECDBF8A836B834C8319828A81843000
:1013700008F0F2C08B81883008F0EEC081E08983EC
:101380008C81813009F06FC08A81282F30E0388746
:101390002F838F8198858130910549F12F81388580
:1013A000223031052CF48F819885009761F0D4C0EC
:1013B0002F8138852230310571F18F8198858330F6
:1013C0009105E9F1C9C0ABE3B0E0EBE3F0E0808167
:1013D000482F8B81282F30E081E090E0022E02C060
:1013E000880F991F0A94E2F7842B8C93B5C0A8E369
:1013F000B0E0E8E3F0E08081482F8B81282F30E0D7
:1014000081E090E0022E02C0880F991F0A94E2F753
:10141000842B8C93A1C0A5E3B0E0E5E3F0E08081EC
:10142000482F8B81282F30E081E090E0022E02C00F
:10143000880F991F0A94E2F7842B8C938DC0A2E346
:10144000B0E0E2E3F0E08081482F8B81282F30E08C
:1014500081E090E0022E02C0880F991F0A94E2F703
:10146000842B8C9379C08C81882309F074C08A8185
:10147000282F30E03E832D838D819E818130910520
:1014800059F12D813E81223031052CF48D819E81D0
:10149000009769F061C02D813E812230310589F1CC
:1014A0008D819E818330910509F440C055C0ABE326
:1014B000B0E0EBE3F0E08081482F8B81282F30E013
:1014C00081E090E0022E02C0880F991F0A94E2F793
:1014D000809584238C9340C0A8E3B0E0E8E3F0E07B
:1014E0008081482F8B81282F30E081E090E0022E10
:1014F00002C0880F991F0A94E2F7809584238C9389
:101500002BC0A5E3B0E0E5E3F0E08081482F8B81BC
:10151000282F30E081E090E0022E02C0880F991F52
:101520000A94E2F7809584238C9316C0A2E3B0E07E
:10153000E2E3F0E08081482F8B81282F30E081E0CA
:1015400090E0022E02C0880F991F0A94E2F780955E
:1015500084238C9301C01982898128960FB6F89450
:10156000DEBF0FBECDBFCF91DF910895DF93CF9344
:10157000CDB7DEB727970FB6F894DEBF0FBECDBF4D
:101580008A836B835D834C8319828A81843008F05F
:101590007BC08B81883008F077C08C819D8100975B
:1015A00009F472C081E089838A81282F30E03F836B
:1015B0002E834E815F814130510559F18E819F818B
:1015C0008230910534F42E813F812115310569F077
:1015D0005BC04E815F814230510579F18E819F81E0
:1015E0008330910509F43DC04FC0E9E3F0E080810C
:1015F000282F30E08B81882F90E0A90102C05595FB
:1016000047958A95E2F7CA018170EC81FD8180835C
:101610003BC0E6E3F0E08081282F30E08B81882F0B
:1016200090E0A90102C0559547958A95E2F7CA0155
:101630008170EC81FD81808327C0E3E3F0E080814D
:10164000282F30E08B81882F90E0A90102C05595AA
:1016500047958A95E2F7CA018170EC81FD8180830C
:1016600013C0E0E3F0E08081282F30E08B81882FE9
:1016700090E0A90102C0559547958A95E2F7CA0105
:101680008170EC81FD818083898127960FB6F89463
:10169000DEBF0FBECDBFCF91DF910895DF93CF9313
:1016A00000D000D00F92CDB7DEB78A836B8319824A
:1016B0008A81843008F074C08B81883008F070C053
:1016C00081E089838A81282F30E03D832C838C81BF
:1016D0009D818130910549F12C813D812230310578
:1016E0002CF48C819D81009761F05AC02C813D8142
:1016F0002230310571F18C819D8183309105E9F1B2
:101700004FC0ABE3B0E0EBE3F0E08081482F8B818A
:10171000282F30E081E090E0022E02C0880F991F50
:101720000A94E2F784278C933BC0A8E3B0E0E8E397
:10173000F0E08081482F8B81282F30E081E090E01D
:10174000022E02C0880F991F0A94E2F784278C9317
:1017500027C0A5E3B0E0E5E3F0E08081482F8B816E
:10176000282F30E081E090E0022E02C0880F991F00
:101770000A94E2F784278C9313C0A2E3B0E0E2E37B
:10178000F0E08081482F8B81282F30E081E090E0CD
:10179000022E02C0880F991F0A94E2F784278C93C7
:1017A00089810F900F900F900F900F90CF91DF9144
:1017B0000895DF93CF9300D000D00F92CDB7DEB75E
:1017C0008A836B8319828A818430A0F581E08983C2
:1017D0008A81282F30E03D832C838C819D8181304C
:1017E0009105D1F02C813D81223031052CF48C8182
:1017F0009D81009761F01EC02C813D812230310512
:1018000081F08C819D818330910581F013C0EAE3E2
:10181000F0E08B8180830EC0E7E3F0E08B81808372
:1018200009C0E4E3F0E08B81808304C0E1E3F0E0F1
:101830008B81808389810F900F900F900F900F9074
:10184000CF91DF910895DF93CF9300D000D00F9216
:10185000CDB7DEB78A836B8319828A818430A0F585
:1018600081E089838A81282F30E03D832C838C811D
:101870009D8181309105D1F02C813D81223031054F
:101880002CF48C819D81009761F01EC02C813D81DC
:101890002230310581F08C819D818330910581F06A
:1018A00013C0EBE3F0E08B8180830EC0E8E3F0E04F
:1018B0008B81808309C0E5E3F0E08B81808304C0E5
:1018C000E2E3F0E08B81808389810F900F900F908D
:1018D0000F900F90CF91DF910895DF93CF93CDB705
:1018E000DEB728970FB6F894DEBF0FBECDBF8A8350
:1018F0006B834C8319828A81833008F041C18B81CC
:10190000873008F03DC181E089838C81813009F006
:10191000BEC08A81282F30E038872F838F81988539
:101920008130910509F43EC02F8138852230310580
:101930002CF48F819885009771F022C12F81388512
:101940002230310509F455C08F8198858330910587
:1019500009F476C015C1AAE3B0E0EAE3F0E08081C3
:10196000482F8B81282F30E081E090E002C0880F63
:10197000991F2A95E2F7809584238C93ABE3B0E01E
:10198000EBE3F0E08081482F8B81282F30E081E06D
:1019900090E0022E02C0880F991F0A94E2F7842B70
:1019A0008C93EEC0A7E3B0E0E7E3F0E08081482F3E
:1019B0008B81282F30E081E090E002C0880F991FD2
:1019C0002A95E2F7809584238C93A8E3B0E0E8E3BE
:1019D000F0E08081482F8B81282F30E081E090E07B
:1019E000022E02C0880F991F0A94E2F7842B8C9371
:1019F000C7C0A4E3B0E0E4E3F0E08081482F8B812E
:101A0000282F30E081E090E002C0880F991F2A95CE
:101A1000E2F7809584238C93A5E3B0E0E5E3F0E062
:101A20008081482F8B81282F30E081E090E0022ECA
:101A300002C0880F991F0A94E2F7842B8C93A0C0F0
:101A4000A1E3B0E0E1E3F0E08081482F8B81282F13
:101A500030E081E090E002C0880F991F2A95E2F7FC
:101A6000809584238C93A2E3B0E0E2E3F0E08081F0
:101A7000482F8B81282F30E081E090E0022E02C0B9
:101A8000880F991F0A94E2F7842B8C9379C08C817C
:101A9000882309F074C08A81282F30E03E832D838B
:101AA0008D819E818130910559F12D813E812230B9
:101AB00031052CF48D819E81009769F061C02D81E4
:101AC0003E812230310589F18D819E8183309105DF
:101AD00009F440C055C0ABE3B0E0EBE3F0E0808137
:101AE000482F8B81282F30E081E090E0022E02C049
:101AF000880F991F0A94E2F7809584238C9340C045
:101B0000A8E3B0E0E8E3F0E08081482F8B81282F44
:101B100030E081E090E0022E02C0880F991F0A9405
:101B2000E2F7809584238C932BC0A5E3B0E0E5E336
:101B3000F0E08081482F8B81282F30E081E090E019
:101B4000022E02C0880F991F0A94E2F78095842321
:101B50008C9316C0A2E3B0E0E2E3F0E08081482F6E
:101B60008B81282F30E081E090E0022E02C0880FA8
:101B7000991F0A94E2F7809584238C9301C01982FF
:101B8000898128960FB6F894DEBF0FBECDBFCF91E6
:101B9000DF9108950F931F93DF93CF93CDB7DEB7F7
:101BA000C455D0400FB6F894DEBF0FBECDBFFE01C6
:101BB000EF5AFF4F80E090E0A8E4B2E48083918385
:101BC000A283B3838E01035B1F4FFE01EF5AFF4FC9
:101BD000608171818281938120E030E04AEF54E49A
:101BE0000E941F02DC01CB01F80180839183A28354
:101BF000B383FE01E35BFF4F60817181828193813A
:101C000020E030E040E85FE30E942504882344F4AC
:101C1000FE01E55BFF4F81E090E09183808364C02B
:101C2000FE01E35BFF4F608171818281938120E03F
:101C30003FEF4FE757E40E94C50318160CF043C06E
:101C4000FE01EF5AFF4F608171818281938120E014
:101C500030E040E251E40E941F02DC01CB018E0122
:101C6000055B1F4FBC01CD010E944900DC01CB0187
:101C7000F801918380831FC0FE01E75BFF4F88EC72
:101C800090E091838083FE01E75BFF4F808191812B
:101C90000197F1F7FE01E75BFF4F91838083DE013F
:101CA000A55BBF4FFE01E55BFF4F808191810197EE
:101CB00011969C938E93FE01E55BFF4F808191818D
:101CC0000097D1F627C08E01055B1F4FFE01E35B35
:101CD000FF4F60817181828193810E944900DC0104
:101CE000CB01F80191838083DE01A95BBF4FFE0128
:101CF000E55BFF4F808191818D939C93FE01E95BB1
:101D0000FF4F808191810197F1F7FE01E95BFF4F61
:101D10009183808381E063E040E00E949A0881E043
:101D200062E040E00E949A0881E061E040E00E94A9
:101D30009A0881E060E040E00E949A0881E064E057
:101D400040E00E949A0881E065E040E00E949A0825
:101D500081E062E040E00E949A0882E00E94151152
:101D6000FE01ED5BFF4F80E090E0A0EFB1E48083E7
:101D70009183A283B3838E01015C1F4FFE01ED5B53
:101D8000FF4F608171818281938120E030E04AEFD2
:101D900054E40E941F02DC01CB01F801808391838F
:101DA000A283B383FE01FF9660817181828193815A
:101DB00020E030E040E85FE30E94250488232CF413
:101DC00081E090E09EAF8DAF46C0FE01FF9660813E
:101DD00071818281938120E03FEF4FE757E40E94B9
:101DE000C503181664F5FE01ED5BFF4F608171813C
:101DF0008281938120E030E040E251E40E941F02A2
:101E0000DC01CB01BC01CD010E944900DC01CB010A
:101E10009EAF8DAF0FC088EC90E09CAF8BAF8BADC9
:101E20009CAD0197F1F79CAF8BAF8DAD9EAD019747
:101E30009EAF8DAF8DAD9EAD009769F716C0FE01C8
:101E4000FF9660817181828193810E944900DC014B
:101E5000CB019EAF8DAF8DAD9EAD9AAF89AF89ADF1
:101E60009AAD0197F1F79AAF89AF88E20E941511F8
:101E700080E090E0A0E8BFE38DAB9EABAFABB8AF26
:101E80006DA97EA98FA998AD20E030E04AEF54E417
:101E90000E941F02DC01CB0189AB9AABABABBCABA0
:101EA00069A97AA98BA99CA920E030E040E85FE30A
:101EB0000E94250488232CF481E090E098AB8FA742
:101EC0003FC069A97AA98BA99CA920E03FEF4FE701
:101ED00057E40E94C50318164CF56DA97EA98FA979
:101EE00098AD20E030E040E251E40E941F02DC01A6
:101EF000CB01BC01CD010E944900DC01CB0198ABB4
:101F00008FA70FC088EC90E09EA78DA78DA59EA5FA
:101F10000197F1F79EA78DA78FA598A9019798AB78
:101F20008FA78FA598A9009769F714C069A97AA906
:101F30008BA99CA90E944900DC01CB0198AB8FA71B
:101F40008FA598A99CA78BA78BA59CA50197F1F7B6
:101F50009CA78BA78CE00E94151180E090E0A0E880
:101F6000BFE38FA398A7A9A7BAA76FA178A589A552
:101F70009AA520E030E04AEF54E40E941F02DC0101
:101F8000CB018BA39CA3ADA3BEA36BA17CA18DA110
:101F90009EA120E030E040E85FE30E942504882312
:101FA0002CF481E090E09AA389A33FC06BA17CA1AF
:101FB0008DA19EA120E03FEF4FE757E40E94C503AB
:101FC00018164CF56FA178A589A59AA520E030E0F8
:101FD00040E251E40E941F02DC01CB01BC01CD01B3
:101FE0000E944900DC01CB019AA389A30FC088ECB1
:101FF00090E098A38F8F8F8D98A10197F1F798A308
:102000008F8F89A19AA101979AA389A389A19AA1E7
:10201000009769F714C06BA17CA18DA19EA10E94BD
:102020004900DC01CB019AA389A389A19AA19E8FC3
:102030008D8F8D8D9E8D0197F1F79E8F8D8F81E015
:102040000E94151180E090E0A0E0B0E4898F9A8FA3
:10205000AB8FBC8F698D7A8D8B8D9C8D20E030E0AD
:102060004AEF54E40E941F02DC01CB018D8B9E8B52
:10207000AF8BB88F6D897E898F89988D20E030E095
:1020800040E85FE30E94250488232CF481E090E07F
:102090009C8B8B8B3FC06D897E898F89988D20E0CA
:1020A0003FEF4FE757E40E94C50318164CF5698DC2
:1020B0007A8D8B8D9C8D20E030E040E251E40E94CF
:1020C0001F02DC01CB01BC01CD010E944900DC01F3
:1020D000CB019C8B8B8B0FC088EC90E09A8B898B0B
:1020E00089899A890197F1F79A8B898B8B899C89C9
:1020F00001979C8B8B8B8B899C89009769F714C007
:102100006D897E898F89988D0E944900DC01CB0101
:102110009C8B8B8B8B899C89988B8F878F859889DB
:102120000197F1F7988B8F8786E00E94151180E068
:1021300090E0A0E0B0E48B879C87AD87BE876B857D
:102140007C858D859E8520E030E04AEF54E40E9436
:102150001F02DC01CB018F839887A987BA876F8123
:10216000788589859A8520E030E040E85FE30E9429
:10217000250488232CF481E090E09E838D833FC06A
:102180006F81788589859A8520E03FEF4FE757E496
:102190000E94C50318164CF56B857C858D859E8540
:1021A00020E030E040E251E40E941F02DC01CB015C
:1021B000BC01CD010E944900DC01CB019E838D83CF
:1021C0000FC088EC90E09C838B838B819C8101976E
:1021D000F1F79C838B838D819E8101979E838D83F4
:1021E0008D819E81009769F714C06F8178858985FC
:1021F0009A850E944900DC01CB019E838D838D81ED
:102200009E819A83898389819A810197F1F79A83C4
:102210008983CC5ADF4F0FB6F894DEBF0FBECDBF17
:10222000CF91DF911F910F910895DF93CF930F927C
:10223000CDB7DEB7898381E064E040E00E94A80961
:1022400089810E9418120F90CF91DF910895DF933A
:10225000CF930F92CDB7DEB7898381E064E041E090
:102260000E94A80989810E9418120F90CF91DF91D6
:102270000895DF93CF9300D00F92CDB7DEB79B8345
:102280008A8319820FC08981282F30E08A819B813F
:10229000FC01E20FF31F908189818F5F8983892F71
:1022A0000E9427118981282F30E08A819B81FC01BF
:1022B000E20FF31F8081882331F70F900F900F906A
:1022C000CF91DF9108950F931F93DF93CF93CDB7F5
:1022D000DEB72F970FB6F894DEBF0FBECDBF6C8769
:1022E0007D878E879F878AE0FE013296DF01982FD7
:1022F0001D929A95E9F719828C859D85AE85BF85DB
:10230000BB2394F48C859D85AE85BF85B095A09543
:10231000909581959F4FAF4FBF4F8C879D87AE871C
:10232000BF878DE20E9427118981082F10E08C85DC
:102330009D85AE85BF852AE030E040E050E0BC01DD
:10234000CD010E94A116DC01CB01282FCE010296FF
:10235000FC01E00FF11F20838C859D85AE85BF8534
:102360002AE030E040E050E0BC01CD010E94A1161F
:10237000DA01C9018C879D87AE87BF8789818F5F0E
:1023800089838C859D85AE85BF850097A105B105A4
:1023900059F60FC08981815089838981282F30E0C7
:1023A000CE010296FC01E20FF31F8081805D0E9446
:1023B00027118981882371F72F960FB6F894DEBF15
:1023C0000FBECDBFCF91DF911F910F910895DF9385
:1023D000CF93CDB7DEB781E00E941511CF91DF9189
:1023E0000895DF93CF9300D000D000D0CDB7DEB7F3
:1023F0008D836E8380E8898380EC8A8384E98B8374
:1024000084ED8C838D81282F30E0CE010196FC0174
:10241000E20FF31F90818E81890F0E94151126967D
:102420000FB6F894DEBF0FBECDBFCF91DF910895F8
:10243000DF93CF930F92CDB7DEB789838981982F31
:10244000991F9927991F81E063E0492F0E94A809ED
:1024500089818295869586958370982F917081E009
:1024600062E0492F0E94A80989818295869587702C
:10247000982F917081E061E0492F0E94A80989811D
:1024800082958F70982F917081E060E0492F0E94B3
:10249000A8090E9477128981869586958695982F3E
:1024A000917081E063E0492F0E94A8098981869597
:1024B0008695982F917081E062E0492F0E94A809CB
:1024C00089818695982F917081E061E0492F0E9463
:1024D000A8098981982F917081E060E0492F0E94BE
:1024E000A8090E9477120F90CF91DF910895DF9392
:1024F000CF93CDB7DEB768970FB6F894DEBF0FBEA7
:10250000CDBF81E065E041E00E94A80980E090E055
:10251000A6E9B3E48D8B9E8BAF8BB88F6D897E89D6
:102520008F89988D2BEA3AEA4AE250E40E941F0212
:10253000DC01CB01898B9A8BAB8BBC8B69897A8947
:102540008B899C8920E030E040E85FE30E9425040D
:1025500088231CF481E0888B91C069897A898B89F2
:102560009C8920E030E04FE753E40E94C503181631
:102570000CF07BC06D897E898F89988D20E030E0DA
:102580004AE754E40E941903DC01CB018C879D8744
:10259000AE87BF876C857D858E859F8520E030E086
:1025A0004AEF54E40E941F02DC01CB01888799871F
:1025B000AA87BB87688579858A859B8520E030E07E
:1025C00040E85FE30E94250488232CF481E090E03A
:1025D0009F838E833FC0688579858A859B8520E0AF
:1025E0003FEF4FE757E40E94C50318164CF56C8582
:1025F0007D858E859F8520E030E040E251E40E9499
:102600001F02DC01CB01BC01CD010E944900DC01AD
:10261000CB019F838E830FC088EC90E09D838C83D9
:102620008C819D810197F1F79D838C838E819F81A1
:1026300001979F838E838E819F81009769F724C0C5
:10264000688579858A859B850E944900DC01CB01DC
:102650009F838E838E819F819B838A838A819B81C6
:102660000197F1F79B838A830FC069897A898B89E7
:102670009C890E944900DC01CB01888B8889898371
:1026800089818A95F1F7898381E065E040E00E94C5
:10269000A80968960FB6F894DEBF0FBECDBFCF91E4
:1026A000DF910895DF93CF9300D00F92CDB7DEB7BF
:1026B0009B838A831982EA81FB8181810E94E513D1
:1026C000EA81FB818183EA81FB818081882341F457
:1026D000EA81FB8181818F7BEA81FB8181831BC041
:1026E000EA81FB8181818064EA81FB818183EA81C7
:1026F000FB818081823041F4EA81FB8181818F7D81
:10270000EA81FB81818307C0EA81FB81818180624C
:10271000EA81FB8181830E94990688E60E94C906AE
:1027200080E00E943907EA81FB8183810E94E513E2
:102730000E943907EA81FB8182810E94E5130E9491
:102740003907EA81FB8181810E9439070E940A08CA
:1027500089810F900F900F90CF91DF910895DF93B3
:10276000CF9300D00F92CDB7DEB79B838A831982B7
:102770000E94990688E60E94C90683E00E943907F4
:10278000EA81FB8180810E94E5130E943907EA817A
:10279000FB8181810E94E5130E943907EA81FB8158
:1027A00082810E94E5130E943907EA81FB818381BF
:1027B0000E94E5130E9439070E940A0889810F9040
:1027C0000F900F90CF91DF910895DF93CF9300D0BA
:1027D000CDB7DEB78A838A819AE0692F0E94951669
:1027E000892F89838A819AE0692F0E9495168A83AE
:1027F0008A81882F90E082959295907F9827807F9C
:102800009827982F8981892B898389810F900F9030
:10281000CF91DF910895DF93CF9300D0CDB7DEB78E
:102820008A8319828A81807F89838A818F708A83D3
:10283000898182958F70882F90E09C01220F331F31
:10284000C901880F991F880F991F820F931F982F16
:102850008A81890F898389810F900F90CF91DF91B1
:102860000895DF93CF9300D00F92CDB7DEB79B834F
:102870008A8319820E94990688E60E94C90680E030
:102880000E9439070E94E00788E60E9401070E9423
:102890009007EA81FB8183830E949007EA81FB8194
:1028A00082830E94BD07EA81FB8181830E940A081E
:1028B000EA81FB8181818295869586958370882F38
:1028C00090E081709070009721F4EA81FB81108282
:1028D00016C0EA81FB8181818295869586958370F9
:1028E000882F90E081709070882329F0EA81FB8125
:1028F00081E0808304C0EA81FB8182E0808389815A
:102900000F900F900F90CF91DF910895DF93CF93A9
:1029100000D00F92CDB7DEB79B838A8319820E94C5
:10292000990688E60E94C90683E00E9439070E9442
:10293000E00788E60E9401070E949007EA81FB8178
:1029400080830E949007EA81FB8181830E94900727
:10295000EA81FB8182830E94BD07EA81FB81838338
:102960000E940A0889810F900F900F90CF91DF91FC
:102970000895DF93CF93CDB7DEB76A970FB6F8947B
:10298000DEBF0FBECDBF0E944F060E94CA0D81EB75
:1029900090E00E94521385EB90E00E94AF1381EB10
:1029A00090E00E94311485EB90E00E9486148091A3
:1029B000B2000E940B148E8B8091B1000E940B1408
:1029C0008D8B8091B3000E940B148C8B8091B4008E
:1029D0000E940B148B8B8091B5000E940B148A8B84
:1029E0008091B6000E940B14898B8091B7000E94E1
:1029F0000B14888B8091B8000E940B148F8780E69F
:102A000090E00E9439118E89882F90E0A0E0B0E01C
:102A1000BC01CD010E94631187E690E00E9439114C
:102A20008C89882F90E0A0E0B0E0BC01CD010E942D
:102A3000631187E690E00E9439118B89882F90E01E
:102A4000A0E0B0E0BC01CD010E9463118D89282F68
:102A500030E03A8F298F898D9A8D8130910599F0D8
:102A6000298D3A8D2230310549F0898D9A8D009754
:102A700071F489E690E00E94391109C08FE690E078
:102A80000E94391104C083E790E00E94391181E06F
:102A900060E00E94F11187E790E00E9439118A8975
:102AA000282F30E0388F2F8B8F89988D83309105B8
:102AB00099F12F89388D243031057CF48F89988DD8
:102AC00081309105F9F02F89388D22303105FCF4E1
:102AD0008F89988D009789F032C02F89388D2530E5
:102AE000310521F18F89988D85309105D4F02F899A
:102AF000388D26303105F9F022C08EE790E00E9433
:102B000039111DC082E890E00E94391118C086E892
:102B100090E00E94391113C08AE890E00E943911B8
:102B20000EC08EE890E00E94391109C082E990E061
:102B30000E94391104C086E990E00E94391182E0B8
:102B400060E00E94F1118AE990E00E9439118989C0
:102B5000882F90E0A0E0B0E0BC01CD010E9463119D
:102B600081EA90E00E9439118889882F90E0A0E0E6
:102B7000B0E0BC01CD010E94631183EA90E00E94A5
:102B800039118F85882F90E0A0E0B0E0BC01CD0125
:102B90000E9463111E8A1D8A1C8A1B8A81EB90E0A9
:102BA0000E9431148091B2000E940B148E8B809190
:102BB000B1000E940B148D8B8091B3000E940B1406
:102BC0008C8B8091B4000E940B148B8B80E060E0B2
:102BD0000E94F11180E690E00E9439118E89882FC1
:102BE00090E0A0E0B0E0BC01CD010E94631187E657
:102BF00090E00E9439118C89882F90E0A0E0B0E02D
:102C0000BC01CD010E94631187E690E00E9439115A
:102C10008B89893070F48B89882F90E0A0E0B0E038
:102C2000BC01CD010E94631187EA90E00E94391136
:102C300009C08B89882F90E0A0E0B0E0BC01CD01F5
:102C40000E94631180E090E0A8ECB3E48B879C873E
:102C5000AD87BE876B857C858D859E8520E030E0C5
:102C60004AEF54E40E941F02DC01CB018F83988756
:102C7000A987BA876F81788589859A8520E030E0B9
:102C800040E85FE30E94250488232CF481E090E073
:102C90009E838D833FC06F81788589859A8520E0EA
:102CA0003FEF4FE757E40E94C50318164CF56B85BC
:102CB0007C858D859E8520E030E040E251E40E94D5
:102CC0001F02DC01CB01BC01CD010E944900DC01E7
:102CD000CB019E838D830FC088EC90E09C838B8317
:102CE0008B819C810197F1F79C838B838D819E81E1
:102CF00001979E838D838D819E81009769F74ACFCE
:102D00006F81788589859A850E944900DC01CB0115
:102D10009E838D838D819E819A83898389819A8107
:102D20000197F1F79A83898335CF991B79E004C025
:102D3000991F961708F0961B881F7A95C9F78095FA
:102D4000089597FB092E05260ED057FD04D014D008
:102D50000AD0001C38F450954095309521953F4F8E
:102D60004F4F5F4F0895F6F7909580957095619558
:102D70007F4F8F4F9F4F0895A1E21A2EAA1BBB1BB6
:102D8000FD010DC0AA1FBB1FEE1FFF1FA217B30737
:102D9000E407F50720F0A21BB30BE40BF50B661F4D
:102DA000771F881F991F1A9469F760957095809511
:102DB00090959B01AC01BD01CF0108952F923F92E8
:102DC0004F925F926F927F928F929F92AF92BF923B
:102DD000CF92DF92EF92FF920F931F93CF93DF93E7
:102DE000CDB7DEB7CA1BDB0B0FB6F894DEBF0FBE44
:102DF000CDBF09942A88398848885F846E847D8491
:102E00008C849B84AA84B984C884DF80EE80FD8092
:102E10000C811B81AA81B981CE0FD11D0FB6F89408
:0E2E2000DEBF0FBECDBFED010895F894FFCFC9
:102E2E00434C4B203A20003A00202832342900200F
:102E3E00414D0020504D00446179203A200053410D
:102E4E00540053554E004D4F4E00545545005745B6
:102E5E004400544852004652490044617465203A79
:102E6E00002F002F32300020000000000000000074
:0A2E7E00000012323302190816009A
:00000001FF
