:100000000C942A000C9447000C9447000C94470071
:100010000C9447000C9447000C9447000C94470044
:100020000C9447000C9447000C9447000C94470034
:100030000C9447000C94E00D0C9447000C94850D33
:100040000C9447000C9447000C9447000C94470014
:100050000C94470011241FBECFE5D8E0DEBFCDBF12
:1000600012E0A0E6B0E0E6EAF9E402C005900D92E5
:10007000AA35B107D9F712E0AAE5B2E001C01D9296
:10008000A336B107E1F70E94101D0C94D1240C9403
:100090000000EF92FF920F931F937B018C0120E0F1
:1000A00030E040E05FE40E94F50388238CF0C80153
:1000B000B70120E030E040E05FE40E94C1010E940F
:1000C00055049B01AC01205030404040504806C0D0
:1000D000C801B7010E9455049B01AC01B901CA01D6
:1000E0001F910F91FF90EF900895A0E0B0E0EBE733
:1000F000F0E00C949A24DC012B01FA019C919230DF
:1001000008F439C1EB018881823008F433C194309E
:1001100069F4843009F02FC111969C91119789815F
:10012000981709F428C1A2E5B2E025C1843009F48A
:1001300021C18230A9F4923009F01DC19A01AD01AC
:1001400088E0EA010990AE01E90109929E0181501F
:10015000C1F7E201898111969C918923818308C1AD
:10016000923009F407C112962D903C901397EB0141
:100170008A819B811496AD90BD90CD90DC901797AD
:10018000EC80FD800E811F819101281B390BB90184
:1001900037FF04C066277727621B730B6032710537
:1001A0000CF061C0121613066CF537014801062EDB
:1001B00004C096948794779467940A94D2F721E0C8
:1001C00030E040E050E004C0220F331F441F551FB1
:1001D0006A95D2F721503040404050402E213F21B7
:1001E00040235123211531054105510521F021E01E
:1001F00030E040E050E079018A01E628F72808293C
:1002000019293CC0232BD1F1260E371E350146019A
:10021000062E04C096948794779467940A94D2F734
:1002200021E030E040E050E004C0220F331F441FC3
:10023000551F6A95D2F721503040404050402A2146
:100240003B214C215D21211531054105510521F04E
:1002500021E030E040E050E059016A01A628B728CB
:10026000C828D9280BC0821593052CF01C01AA249C
:10027000BB24650103C0EE24FF24870111969C91E5
:10028000D20111968C91981709F445C0992339F041
:10029000A80197012A193B094C095D0906C0A6016E
:1002A00095012E193F09400B510B57FD08C01182D3
:1002B0003382228224833583468357831DC081E0A5
:1002C00081833382228288279927DC01821B930B4A
:1002D000A40BB50B84839583A683B7830DC0220F2F
:1002E000331F441F551F24833583468357838281E0
:1002F000938101979383828324813581468157813D
:10030000DA01C9010197A109B1098F5F9F4FAF4F72
:10031000BF4328F30BC0918333822282EA0CFB1C7B
:100320000C1D1D1DE482F5820683178383E0808304
:10033000248135814681578157FF1AC0C901AA27F8
:1003400097FDA095BA2F81709070A070B0705695EF
:10035000479537952795822B932BA42BB52B848318
:100360009583A683B7838281938101969383828349
:10037000DF0101C0D201CD01CDB7DEB7E2E10C94BF
:10038000B624A0E2B0E0E7ECF1E00C94A624698387
:100390007A838B839C832D833E834F835887E9E048
:1003A000EE2EF12CEC0EFD1ECE010196B7010E943F
:1003B0007E058E010F5E1F4FCE010596B8010E948B
:1003C0007E058A8991E089278A8BC701B801AE0131
:1003D000475E5F4F0E9475000E94A904A096E6E068
:1003E0000C94C224A0E2B0E0E8EFF1E00C94A62463
:1003F00069837A838B839C832D833E834F835887C5
:10040000F9E0EF2EF12CEC0EFD1ECE010196B701A6
:100410000E947E058E010F5E1F4FCE010596B8012A
:100420000E947E05C701B801AE01475E5F4F0E9482
:1004300075000E94A904A096E6E00C94C224A0E2F4
:10044000B0E0E5E2F2E00C949A2469837A838B832E
:100450009C832D833E834F835887CE010196BE0136
:10046000675F7F4F0E947E05CE010596BE016F5EDD
:100470007F4F0E947E059985923088F0898982306D
:10048000C8F0943019F4823051F404C0843029F457
:10049000923081F482E592E0C6C0923049F420E0C7
:1004A0009A858A89981321E02A87CE010996BBC0D4
:1004B000823049F420E09A858A89981321E02A8BBA
:1004C000CE014196B0C02D843E844F8458886D88FB
:1004D0007E888F88988CEE24FF248701AA24BB2471
:1004E000650140E050E060E070E0E0E0F0E0C10174
:1004F00081709070892BE9F0E60CF71C081D191D1E
:100500009A01AB012A0D3B1D4C1D5D1D80E090E062
:10051000A0E0B0E0E614F7040805190520F481E036
:1005200090E0A0E0B0E0BA01A901480F591F6A1F8E
:100530007B1FAA0CBB1CCC1CDD1C97FE08C081E0F5
:1005400090E0A0E0B0E0A82AB92ACA2ADB2A3196B6
:10055000E032F10549F0660C771C881C991C569412
:10056000479437942794C3CFFA85EA892B893C892D
:100570008B859C85280F391F2E5F3F4F17C0CA01FE
:1005800081709070892B61F016950795F794E79428
:1005900080E090E0A0E0B0E8E82AF92A0A2B1B2BC3
:1005A00076956795579547952F5F3F4F77FDE7CF36
:1005B0000CC0440F551F661F771F17FD4160EE0CDE
:1005C000FF1C001F111F21503040403090E05907A0
:1005D00090E0690790E4790760F32B8F3C8FDB0193
:1005E000CA018F779070A070B07080349105A1051A
:1005F000B10561F447FD0AC0E114F10401051105DC
:1006000029F0405C5F4F6F4F7F4F40781A8EFE1786
:1006100011F081E08A8F4D8F5E8F6F8F78A383E01A
:10062000898FCE0149960E94A904A096E2E10C941C
:10063000B624A8E1B0E0EFE1F3E00C94A2246983D2
:100640007A838B839C832D833E834F835887B9E0C5
:10065000EB2EF12CEC0EFD1ECE010196B7010E948F
:100660007E058E010F5E1F4FCE010596B8010E94D8
:100670007E052985223008F47EC03989323010F495
:10068000B8017CC08A859A8989278A87243011F02D
:10069000223031F4231709F06EC062E572E06EC0BB
:1006A000343039F41D861E861F86188A1C861B86E8
:1006B00004C0323021F484E08987B7015FC02B8504
:1006C0003C858B899C89281B390B3C872B87ED84C3
:1006D000FE840F851889AD88BE88CF88D88CEA142F
:1006E000FB040C051D0540F4EE0CFF1C001F111F40
:1006F000215030403C872B8720E030E040E050E044
:1007000080E090E0A0E0B0E460E070E0EA14FB0478
:100710000C051D0540F0282B392B4A2B5B2BEA18C2
:10072000FB080C091D09B695A79597958795EE0CC2
:10073000FF1C001F111F6F5F7F4F6F31710531F775
:10074000DA01C9018F779070A070B0708034910584
:10075000A105B10561F427FD0AC0E114F10401050A
:10076000110529F0205C3F4F4F4F5F4F20782D87B8
:100770003E874F87588BBE01675F7F4FCB010E943A
:10078000A9046896EAE00C94BE24A8E1B0E0EBEC82
:10079000F3E00C94A62469837A838B839C832D8356
:1007A0003E834F83588789E0E82EF12CEC0EFD1E26
:1007B000CE010196B7010E947E058E010F5E1F4F8C
:1007C000CE010596B8010E947E058985823040F0F1
:1007D0008989823028F0C701B8010E94F60501C05E
:1007E0008FEF6896E6E00C94C224A8E1B0E0EBEF4E
:1007F000F3E00C94A62469837A838B839C832D83F6
:100800003E834F83588789E0E82EF12CEC0EFD1EC5
:10081000CE010196B7010E947E058E010F5E1F4F2B
:10082000CE010596B8010E947E058985823040F090
:100830008989823028F0C701B8010E94F60501C0FD
:100840008FEF6896E6E00C94C224A8E1B0E0EBE2FA
:10085000F4E00C94A62469837A838B839C832D8394
:100860003E834F83588789E0E82EF12CEC0EFD1E65
:10087000CE010196B7010E947E058E010F5E1F4FCB
:10088000CE010596B8010E947E058985823040F030
:100890008989823028F0C701B8010E94F60501C09D
:1008A00081E06896E6E00C94C224ACE0B0E0EBE5B1
:1008B000F4E00C94AA2469837A838B839C83CE0111
:1008C0000196BE016B5F7F4F0E947E058D81823055
:1008D00061F1823050F1843021F48E81882351F10E
:1008E0002EC02F81388537FD20C06E812F31310514
:1008F0001CF06623F9F023C08EE190E0821B930B7D
:1009000029853A854B855C8504C056954795379572
:1009100027958A95D2F76623B1F05095409530958A
:1009200021953F4F4F4F5F4F0EC020E030E040E039
:1009300050E009C02FEF3FEF4FEF5FE704C020E02A
:1009400030E040E050E8B901CA012C96E2E00C9496
:10095000C624DF92EF92FF920F931F93FC01E48075
:10096000F58006811781D1808081823048F480E053
:1009700090E0A0E1B0E0E82AF92A0A2B1B2BA5C0E1
:10098000843009F49FC0823021F4EE24FF248701D3
:1009900005C0E114F1040105110519F4E0E0F0E0EF
:1009A00096C0628173819FEF623879070CF05BC05B
:1009B00022E83FEF261B370B2A3131052CF020E0CF
:1009C00030E040E050E02AC0B801A701022E04C088
:1009D00076956795579547950A94D2F781E090E010
:1009E000A0E0B0E004C0880F991FAA1FBB1F2A9582
:1009F000D2F70197A109B1098E219F21A023B1232C
:100A00000097A105B10521F081E090E0A0E0B0E001
:100A10009A01AB01282B392B4A2B5B2BDA01C90138
:100A20008F779070A070B07080349105A105B105EA
:100A300039F427FF09C0205C3F4F4F4F5F4F04C080
:100A4000215C3F4F4F4F5F4FE0E0F0E02030A0E0EF
:100A50003A07A0E04A07A0E45A0710F0E1E0F0E00E
:100A600079018A0127C06038710564F5FB01E158FE
:100A7000FF4FD801C7018F779070A070B07080349D
:100A80009105A105B10539F4E7FE0DC080E490E0C1
:100A9000A0E0B0E004C08FE390E0A0E0B0E0E80E9A
:100AA000F91E0A1F1B1F17FF05C016950795F7941F
:100AB000E794319687E016950795F794E7948A9521
:100AC000D1F705C0EE24FF248701EFEFF0E06E2F91
:100AD000679566276795902F9F77D794DD24D794E5
:100AE0008E2F8695492F462B582F5D29B701CA01B5
:100AF0001F910F91FF90EF90DF900895FC01DB01B3
:100B0000408151812281622F6F7770E0221F22275E
:100B1000221F9381892F880F822B282F30E0991F65
:100B20009927991F11969C93119721153105A9F5C5
:100B3000411551056105710511F482E037C082E865
:100B40009FEF13969C938E9312979A01AB0167E0E7
:100B5000220F331F441F551F6A95D1F783E08C93F2
:100B60000DC0220F331F441F551F12968D919C916B
:100B70001397019713969C938E931297203080E0E1
:100B8000380780E0480780E4580758F314962D93FF
:100B90003D934D935C93179708952F3F310579F45A
:100BA000411551056105710519F484E08C93089590
:100BB00064FF03C081E08C9312C01C9210C02F57B9
:100BC000304013963C932E93129783E08C9387E0EA
:100BD000440F551F661F771F8A95D1F770641496CE
:100BE0004D935D936D937C93179708951F93DC014C
:100BF000FB019C91923008F447C08081823008F458
:100C000043C0943051F411961C91843099F5818140
:100C1000682F70E0611B71093FC0843021F0923071
:100C200031F48230B9F18181882389F12DC0119688
:100C30001C9111978230F1F081811817D9F4129626
:100C40002D913C911397828193818217930794F0A1
:100C500028173907BCF014968D919D910D90BC9189
:100C6000A02D2481358146815781281739074A07ED
:100C70005B0718F4112341F00AC082179307A407F9
:100C8000B50740F4112319F061E070E005C06FEF83
:100C90007FEF02C060E070E0CB011F910895DF9309
:100CA000CF93CDB7DEB7AFE5B0E0EFE5F0E0808100
:100CB00080688C93CF91DF910895DF93CF93CDB768
:100CC000DEB7AFE5B0E0EFE5F0E080818F778C93A1
:100CD000CF91DF910895DF93CF93CDB7DEB7EAE3ED
:100CE000F0E08FEF8083E7E3F0E08FEF8083E4E3D1
:100CF000F0E087EF8083E1E3F0E08FEF8083EBE3C8
:100D0000F0E01082E8E3F0E01082E5E3F0E088E054
:100D10008083E2E3F0E01082CF91DF910895DF93CA
:100D2000CF93CDB7DEB728970FB6F894DEBF0FBECE
:100D3000CDBF8A836B834C8319828A81843008F00B
:100D4000F2C08B81883008F0EEC081E089838C810D
:100D5000882309F06FC08A81282F30E038872F83DD
:100D60008F8198858130910549F12F813885223016
:100D700031052CF48F819885009761F0D4C02F81C4
:100D800038852230310571F18F8198858330910546
:100D9000E9F1C9C0AAE3B0E0EAE3F0E08081482FBE
:100DA0008B81282F30E081E090E0022E02C0880F76
:100DB000991F0A94E2F7842B8C93B5C0A7E3B0E0A7
:100DC000E7E3F0E08081482F8B81282F30E081E03D
:100DD00090E0022E02C0880F991F0A94E2F7842B3C
:100DE0008C93A1C0A4E3B0E0E4E3F0E08081482F5D
:100DF0008B81282F30E081E090E0022E02C0880F26
:100E0000991F0A94E2F7842B8C938DC0A1E3B0E084
:100E1000E1E3F0E08081482F8B81282F30E081E0F2
:100E200090E0022E02C0880F991F0A94E2F7842BEB
:100E30008C9379C08C81813009F074C08A81282F0D
:100E400030E03E832D838D819E818130910559F163
:100E50002D813E81223031052CF48D819E810097B9
:100E600069F061C02D813E812230310589F18D818B
:100E70009E818330910509F440C055C0AAE3B0E0DB
:100E8000EAE3F0E08081482F8B81282F30E081E079
:100E900090E0022E02C0880F991F0A94E2F7809515
:100EA00084238C9340C0A7E3B0E0E7E3F0E08081C7
:100EB000482F8B81282F30E081E090E0022E02C085
:100EC000880F991F0A94E2F7809584238C932BC096
:100ED000A4E3B0E0E4E3F0E08081482F8B81282F89
:100EE00030E081E090E0022E02C0880F991F0A9442
:100EF000E2F7809584238C9316C0A1E3B0E0E1E390
:100F0000F0E08081482F8B81282F30E081E090E055
:100F1000022E02C0880F991F0A94E2F7809584235D
:100F20008C9301C01982898128960FB6F894DEBF90
:100F30000FBECDBFCF91DF910895DF93CF93CDB793
:100F4000DEB728970FB6F894DEBF0FBECDBF8A83F9
:100F50006B834C8319828A81843008F0F2C08B81C4
:100F6000883008F0EEC081E089838C81813009F0FF
:100F70006FC08A81282F30E038872F838F81988532
:100F80008130910549F12F813885223031052CF4CB
:100F90008F819885009761F0D4C02F8138852230E9
:100FA000310571F18F81988583309105E9F1C9C0D0
:100FB000ABE3B0E0EBE3F0E08081482F8B81282F9A
:100FC00030E081E090E0022E02C0880F991F0A9461
:100FD000E2F7842B8C93B5C0A8E3B0E0E8E3F0E03F
:100FE0008081482F8B81282F30E081E090E0022E15
:100FF00002C0880F991F0A94E2F7842B8C93A1C03A
:10100000A5E3B0E0E5E3F0E08081482F8B81282F55
:1010100030E081E090E0022E02C0880F991F0A9410
:10102000E2F7842B8C938DC0A2E3B0E0E2E3F0E022
:101030008081482F8B81282F30E081E090E0022EC4
:1010400002C0880F991F0A94E2F7842B8C9379C011
:101050008C81882309F074C08A81282F30E03E8378
:101060002D838D819E818130910559F12D813E81A5
:10107000223031052CF48D819E81009769F061C08A
:101080002D813E812230310589F18D819E81833011
:10109000910509F440C055C0ABE3B0E0EBE3F0E0EC
:1010A0008081482F8B81282F30E081E090E0022E54
:1010B00002C0880F991F0A94E2F7809584238C93CD
:1010C00040C0A8E3B0E0E8E3F0E08081482F8B81E6
:1010D000282F30E081E090E0022E02C0880F991F97
:1010E0000A94E2F7809584238C932BC0A5E3B0E0AB
:1010F000E5E3F0E08081482F8B81282F30E081E00C
:1011000090E0022E02C0880F991F0A94E2F78095A2
:1011100084238C9316C0A2E3B0E0E2E3F0E0808188
:10112000482F8B81282F30E081E090E0022E02C012
:10113000880F991F0A94E2F7809584238C9301C04D
:101140001982898128960FB6F894DEBF0FBECDBFF5
:10115000CF91DF910895DF93CF93CDB7DEB7279777
:101160000FB6F894DEBF0FBECDBF8A836B835D835D
:101170004C8319828A81843008F07BC08B8188304F
:1011800008F077C08C819D81009709F472C081E0DE
:1011900089838A81282F30E03F832E834E815F81AF
:1011A0004130510559F18E819F818230910534F48F
:1011B0002E813F812115310569F05BC04E815F8131
:1011C0004230510579F18E819F818330910509F478
:1011D0003DC04FC0E9E3F0E08081282F30E08B81F3
:1011E000882F90E0A90102C0559547958A95E2F7AE
:1011F000CA018170EC81FD8180833BC0E6E3F0E0B1
:101200008081282F30E08B81882F90E0A90102C0D7
:10121000559547958A95E2F7CA018170EC81FD8169
:10122000808327C0E3E3F0E08081282F30E08B81CA
:10123000882F90E0A90102C0559547958A95E2F75D
:10124000CA018170EC81FD81808313C0E0E3F0E08E
:101250008081282F30E08B81882F90E0A90102C087
:10126000559547958A95E2F7CA018170EC81FD8119
:101270008083898127960FB6F894DEBF0FBECDBF5D
:10128000CF91DF910895DF93CF9300D000D00F92DC
:10129000CDB7DEB78A836B8319828A81843008F0E8
:1012A00074C08B81883008F070C081E089838A81A6
:1012B000282F30E03D832C838C819D8181309105E6
:1012C00049F12C813D81223031052CF48C819D81A6
:1012D000009761F05AC02C813D812230310571F1B7
:1012E0008C819D8183309105E9F14FC0ABE3B0E083
:1012F000EBE3F0E08081482F8B81282F30E081E004
:1013000090E0022E02C0880F991F0A94E2F784270A
:101310008C933BC0A8E3B0E0E8E3F0E08081482F85
:101320008B81282F30E081E090E0022E02C0880FF0
:10133000991F0A94E2F784278C9327C0A5E3B0E0B5
:10134000E5E3F0E08081482F8B81282F30E081E0B9
:1013500090E0022E02C0880F991F0A94E2F78427BA
:101360008C9313C0A2E3B0E0E2E3F0E08081482F69
:101370008B81282F30E081E090E0022E02C0880FA0
:10138000991F0A94E2F784278C9389810F900F901C
:101390000F900F900F90CF91DF910895DF93CF932F
:1013A00000D000D00F92CDB7DEB78A836B8319824D
:1013B0008A818430A0F581E089838A81282F30E0FA
:1013C0003D832C838C819D8181309105D1F02C81CE
:1013D0003D81223031052CF48C819D81009761F094
:1013E0001EC02C813D812230310581F08C819D8190
:1013F0008330910581F013C0EAE3F0E08B818083B4
:101400000EC0E7E3F0E08B81808309C0E4E3F0E005
:101410008B81808304C0E1E3F0E08B81808389814C
:101420000F900F900F900F900F90CF91DF91089534
:10143000DF93CF9300D000D00F92CDB7DEB78A8371
:101440006B8319828A818430A0F581E089838A8147
:10145000282F30E03D832C838C819D818130910544
:10146000D1F02C813D81223031052CF48C819D817D
:10147000009761F01EC02C813D812230310581F042
:101480008C819D818330910581F013C0EBE3F0E006
:101490008B8180830EC0E8E3F0E08B81808309C0FC
:1014A000E5E3F0E08B81808304C0E2E3F0E08B8130
:1014B000808389810F900F900F900F900F90CF91A4
:1014C000DF910895DF93CF93CDB7DEB728970FB69E
:1014D000F894DEBF0FBECDBF8A836B834C83198225
:1014E0008A81833008F041C18B81873008F03DC18B
:1014F00081E089838C81813009F0BEC08A81282FE8
:1015000030E038872F838F8198858130910509F4E9
:101510003EC02F813885223031052CF48F8198858B
:10152000009771F022C12F8138852230310509F4EE
:1015300055C08F8198858330910509F476C015C117
:10154000AAE3B0E0EAE3F0E08081482F8B81282F06
:1015500030E081E090E002C0880F991F2A95E2F701
:10156000809584238C93ABE3B0E0EBE3F0E08081E3
:10157000482F8B81282F30E081E090E0022E02C0BE
:10158000880F991F0A94E2F7842B8C93EEC0A7E38F
:10159000B0E0E7E3F0E08081482F8B81282F30E036
:1015A00081E090E002C0880F991F2A95E2F78095AC
:1015B00084238C93A8E3B0E0E8E3F0E08081482F37
:1015C0008B81282F30E081E090E0022E02C0880F4E
:1015D000991F0A94E2F7842B8C93C7C0A4E3B0E070
:1015E000E4E3F0E08081482F8B81282F30E081E018
:1015F00090E002C0880F991F2A95E2F78095842316
:101600008C93A5E3B0E0E5E3F0E08081482F8B8187
:10161000282F30E081E090E0022E02C0880F991F51
:101620000A94E2F7842B8C93A0C0A1E3B0E0E1E33D
:10163000F0E08081482F8B81282F30E081E090E01E
:1016400002C0880F991F2A95E2F7809584238C9316
:10165000A2E3B0E0E2E3F0E08081482F8B81282F05
:1016600030E081E090E0022E02C0880F991F0A94BA
:10167000E2F7842B8C9379C08C81882309F074C0A5
:101680008A81282F30E03E832D838D819E81813099
:10169000910559F12D813E81223031052CF48D8147
:1016A0009E81009769F061C02D813E812230310515
:1016B00089F18D819E818330910509F440C055C028
:1016C000ABE3B0E0EBE3F0E08081482F8B81282F83
:1016D00030E081E090E0022E02C0880F991F0A944A
:1016E000E2F7809584238C9340C0A8E3B0E0E8E360
:1016F000F0E08081482F8B81282F30E081E090E05E
:10170000022E02C0880F991F0A94E2F78095842365
:101710008C932BC0A5E3B0E0E5E3F0E08081482F97
:101720008B81282F30E081E090E0022E02C0880FEC
:10173000991F0A94E2F7809584238C9316C0A2E344
:10174000B0E0E2E3F0E08081482F8B81282F30E089
:1017500081E090E0022E02C0880F991F0A94E2F700
:10176000809584238C9301C01982898128960FB6B5
:10177000F894DEBF0FBECDBFCF91DF910895DF9308
:10178000CF9300D00F92CDB7DEB71B8280E190E0FF
:101790009A838983E0E4F0E089819A81892F9927EF
:1017A0008083E9E2F0E089818083ABE2B0E0EBE2A4
:1017B000F0E080818D7F8C93AAE2B0E0EAE2F0E075
:1017C00080818F778C93AAE2B0E0EAE2F0E080813A
:1017D0008F7B8C93AAE2B0E0EAE2F0E080818F7D1B
:1017E0008C938B818F7B8B838B818F7D8B838B8184
:1017F0008F7E8B838B81877F8B838B8182608B83B2
:101800008B8184608B838B8180688B83E0E4F0E044
:101810008B818083AAE2B0E0EAE2F0E08081886018
:101820008C93AAE2B0E0EAE2F0E0808180618C93E0
:101830000F900F900F90CF91DF910895DF93CF938A
:1018400000D00F92CDB7DEB78B8381E08A831982F7
:1018500080915A028823D1F481E080935A02EBE20E
:10186000F0E08081829586958770882F90E0817066
:101870009070009721F489818F5F8983F0CFECE22B
:10188000F0E08B81808310925A0202C083E08A8349
:101890008A810F900F900F90CF91DF910895DF9381
:1018A000CF9300D000D0CDB7DEB79C838B8381E08F
:1018B0008A83198280915A028823A9F481E0809357
:1018C0005A02EBE2F0E08081882324F089818F5F67
:1018D0008983F7CFECE2F0E08081EB81FC818083AB
:1018E00010925A0202C083E08A838A810F900F907F
:1018F0000F900F90CF91DF910895DF93CF9300D099
:1019000000D00F92CDB7DEB79C838B8381E08A83B2
:1019100019828B819C81009709F114C08981282F3D
:1019200030E08B819C81FC01E20FF31F80810E94DB
:101930001E0C813021F489818F5F898303C08A81E5
:101940008D830FC08981282F30E08B819C81FC0121
:10195000E20FF31F8081882309F701C01A828A8170
:101960008D838D810F900F900F900F900F90CF91DE
:10197000DF910895DF93CF9300D000D00F92CDB7C1
:10198000DEB79B838A837D836C8381E0898380912A
:101990005A028823A9F58A819B81009779F18C816D
:1019A0009D81009759F181E080935A028A819B8141
:1019B00090935C0280935B028C819D819093610285
:1019C00080936002ACE2B0E020915B0230915C0257
:1019D00080915F02882F90E0F901E80FF91F808164
:1019E0008C9380915F028F5F80935F02AAE2B0E0E8
:1019F000EAE2F0E0808180648C9304C0198202C026
:101A000083E0898389810F900F900F900F900F9042
:101A1000CF91DF910895DF93CF9300D000D000D015
:101A2000CDB7DEB79C838B836D8381E08A83198277
:101A30008B819C810097C1F012C08981282F30E0F2
:101A40008B819C81820F931F0E944F0C813021F467
:101A500089818F5F898303C08A818E8308C09981C1
:101A60008D81981750F301C01A828A818E838E81EE
:101A700026960FB6F894DEBF0FBECDBFCF91DF9193
:101A80000895DF93CF9300D000D000D0CDB7DEB75C
:101A90009B838A836C835E834D8381E089838091FD
:101AA0005A02882331F58A819B81009701F18D814B
:101AB0009E810097E1F081E080935A028A819B81A8
:101AC00090935E0280935D028D819E81909361026E
:101AD000809360028C818093620210925F02AAE27E
:101AE000B0E0EAE2F0E0808180688C9304C0198263
:101AF00002C083E08983898126960FB6F894DEBF01
:101B00000FBECDBFCF91DF9108951F920F920FB6F8
:101B10000F9211242F933F934F935F936F937F9373
:101B20008F939F93AF93BF93EF93FF93DF93CF93E5
:101B3000CDB7DEB720915B0230915C0280915F02ED
:101B4000882F90E0F901E80FF91F80818823A9F020
:101B5000ACE2B0E020915B0230915C0280915F02C8
:101B6000882F90E0F901E80FF91F80818C93809114
:101B70005F028F5F80935F0210C010925F0210922D
:101B80005A02E0916002F09161020995AAE2B0E088
:101B9000EAE2F0E080818F7B8C93CF91DF91FF911F
:101BA000EF91BF91AF919F918F917F916F915F91D5
:101BB0004F913F912F910F900FBE0F901F9018954E
:101BC0001F920F920FB60F9211242F933F934F93B2
:101BD0005F936F937F938F939F93AF93BF93EF9395
:101BE000FF93DF93CF93CDB7DEB720915D023091A5
:101BF0005E0280915F02882F90E0D901A80FB91F83
:101C0000ECE2F0E080818C9380915F028F5F8093A3
:101C10005F0290915F0280916202981780F01092AB
:101C20005A0210925F02E0916002F0916102099500
:101C3000AAE2B0E0EAE2F0E080818F778C93CF9166
:101C4000DF91FF91EF91BF91AF919F918F917F9124
:101C50006F915F914F913F912F910F900FBE0F9019
:101C60001F9018950F931F93DF93CF93CDB7DEB7D7
:101C7000C455D0400FB6F894DEBF0FBECDBFFE01F5
:101C8000EF5AFF4F80E090E0A8E4B2E480839183B4
:101C9000A283B3838E01035B1F4FFE01EF5AFF4FF8
:101CA000608171818281938120E030E04AE755E4D0
:101CB0000E941F02DC01CB01F80180839183A28383
:101CC000B383FE01E35BFF4F608171818281938169
:101CD00020E030E040E85FE30E942504882344F4DC
:101CE000FE01E55BFF4F81E090E09183808364C05B
:101CF000FE01E35BFF4F608171818281938120E06F
:101D00003FEF4FE757E40E94C50318160CF043C09D
:101D1000FE01EF5AFF4F608171818281938120E043
:101D200030E040E251E40E941F02DC01CB018E0151
:101D3000055B1F4FBC01CD010E944900DC01CB01B6
:101D4000F801918380831FC0FE01E75BFF4F80E9AC
:101D500091E091838083FE01E75BFF4F8081918159
:101D60000197F1F7FE01E75BFF4F91838083DE016E
:101D7000A55BBF4FFE01E55BFF4F8081918101971D
:101D800011969C938E93FE01E55BFF4F80819181BC
:101D90000097D1F627C08E01055B1F4FFE01E35B64
:101DA000FF4F60817181828193810E944900DC0133
:101DB000CB01F80191838083DE01A95BBF4FFE0157
:101DC000E55BFF4F808191818D939C93FE01E95BE0
:101DD000FF4F808191810197F1F7FE01E95BFF4F91
:101DE0009183808381E064E040E00E948F0681E07F
:101DF00062E040E00E948F0681E061E040E00E94E6
:101E00008F0681E060E040E00E948F0680E063E0A2
:101E100040E00E948F0680E062E040E00E948F0672
:101E200080E062E040E00E948F0682E00E947D1127
:101E3000FE01ED5BFF4F80E090E0A0EFB1E4808316
:101E40009183A283B3838E01015C1F4FFE01ED5B82
:101E5000FF4F608171818281938120E030E04AE709
:101E600055E40E941F02DC01CB01F80180839183BD
:101E7000A283B383FE01FF96608171818281938189
:101E800020E030E040E85FE30E94250488232CF442
:101E900081E090E09EAF8DAF46C0FE01FF9660816D
:101EA00071818281938120E03FEF4FE757E40E94E8
:101EB000C503181664F5FE01ED5BFF4F608171816B
:101EC0008281938120E030E040E251E40E941F02D1
:101ED000DC01CB01BC01CD010E944900DC01CB013A
:101EE0009EAF8DAF0FC080E991E09CAF8BAF8BAD03
:101EF0009CAD0197F1F79CAF8BAF8DAD9EAD019777
:101F00009EAF8DAF8DAD9EAD009769F716C0FE01F7
:101F1000FF9660817181828193810E944900DC017A
:101F2000CB019EAF8DAF8DAD9EAD9AAF89AF89AD20
:101F30009AAD0197F1F79AAF89AF88E20E947D11BF
:101F400080E090E0A0E8BFE38DAB9EABAFABB8AF55
:101F50006DA97EA98FA998AD20E030E04AE755E44D
:101F60000E941F02DC01CB0189AB9AABABABBCABCF
:101F700069A97AA98BA99CA920E030E040E85FE339
:101F80000E94250488232CF481E090E098AB8FA771
:101F90003FC069A97AA98BA99CA920E03FEF4FE730
:101FA00057E40E94C50318164CF56DA97EA98FA9A8
:101FB00098AD20E030E040E251E40E941F02DC01D5
:101FC000CB01BC01CD010E944900DC01CB0198ABE3
:101FD0008FA70FC080E991E09EA78DA78DA59EA534
:101FE0000197F1F79EA78DA78FA598A9019798ABA8
:101FF0008FA78FA598A9009769F714C069A97AA936
:102000008BA99CA90E944900DC01CB0198AB8FA74A
:102010008FA598A99CA78BA78BA59CA50197F1F7E5
:102020009CA78BA78FE00E947D1180E090E0A0E844
:10203000BFE38FA398A7A9A7BAA76FA178A589A581
:102040009AA520E030E04AE755E40E941F02DC0137
:10205000CB018BA39CA3ADA3BEA36BA17CA18DA13F
:102060009EA120E030E040E85FE30E942504882341
:102070002CF481E090E09AA389A33FC06BA17CA1DE
:102080008DA19EA120E03FEF4FE757E40E94C503DA
:1020900018164CF56FA178A589A59AA520E030E027
:1020A00040E251E40E941F02DC01CB01BC01CD01E2
:1020B0000E944900DC01CB019AA389A30FC080E9EB
:1020C00091E098A38F8F8F8D98A10197F1F798A336
:1020D0008F8F89A19AA101979AA389A389A19AA117
:1020E000009769F714C06BA17CA18DA19EA10E94ED
:1020F0004900DC01CB019AA389A389A19AA19E8FF3
:102100008D8F8D8D9E8D0197F1F79E8F8D8F81E044
:102110000E947D1180E090E0A0E0B0E4898F9A8F6A
:10212000AB8FBC8F698D7A8D8B8D9C8D20E030E0DC
:102130004AE755E40E941F02DC01CB018D8B9E8B88
:10214000AF8BB88F6D897E898F89988D20E030E0C4
:1021500040E85FE30E94250488232CF481E090E0AE
:102160009C8B8B8B3FC06D897E898F89988D20E0F9
:102170003FEF4FE757E40E94C50318164CF5698DF1
:102180007A8D8B8D9C8D20E030E040E251E40E94FE
:102190001F02DC01CB01BC01CD010E944900DC0122
:1021A000CB019C8B8B8B0FC080E991E09A8B898B44
:1021B00089899A890197F1F79A8B898B8B899C89F8
:1021C00001979C8B8B8B8B899C89009769F714C036
:1021D0006D897E898F89988D0E944900DC01CB0131
:1021E0009C8B8B8B8B899C89988B8F878F8598890B
:1021F0000197F1F7988B8F8786E00E947D1180E030
:1022000090E0A0E0B0E48B879C87AD87BE876B85AC
:102210007C858D859E8520E030E04AE755E40E946C
:102220001F02DC01CB018F839887A987BA876F8152
:10223000788589859A8520E030E040E85FE30E9458
:10224000250488232CF481E090E09E838D833FC099
:102250006F81788589859A8520E03FEF4FE757E4C5
:102260000E94C50318164CF56B857C858D859E856F
:1022700020E030E040E251E40E941F02DC01CB018B
:10228000BC01CD010E944900DC01CB019E838D83FE
:102290000FC080E991E09C838B838B819C810197A7
:1022A000F1F79C838B838D819E8101979E838D8323
:1022B0008D819E81009769F714C06F81788589852B
:1022C0009A850E944900DC01CB019E838D838D811C
:1022D0009E819A83898389819A810197F1F79A83F4
:1022E0008983CC5ADF4F0FB6F894DEBF0FBECDBF47
:1022F000CF91DF911F910F910895DF93CF930F92AC
:10230000CDB7DEB7898380E063E040E00E949D079F
:1023100089810E9470130F90CF91DF910895DF9310
:10232000CF930F92CDB7DEB7898380E063E041E0C1
:102330000E949D0789810E9470130F90CF91DF91B9
:102340000895DF93CF9300D00F92CDB7DEB79B8374
:102350008A8319820FC08981282F30E08A819B816E
:10236000FC01E20FF31F908189818F5F8983892FA0
:102370000E948F118981282F30E08A819B81FC0186
:10238000E20FF31F8081882331F70F900F900F9099
:10239000CF91DF9108950F931F93DF93CF93CDB724
:1023A000DEB72F970FB6F894DEBF0FBECDBF6C8798
:1023B0007D878E879F878AE0FE013296DF01982F06
:1023C0001D929A95E9F719828C859D85AE85BF850A
:1023D000BB2394F48C859D85AE85BF85B095A09573
:1023E000909581959F4FAF4FBF4F8C879D87AE874C
:1023F000BF878DE20E948F118981082F10E08C85A4
:102400009D85AE85BF852AE030E040E050E0BC010C
:10241000CD010E945D24DC01CB01282FCE01029664
:10242000FC01E00FF11F20838C859D85AE85BF8563
:102430002AE030E040E050E0BC01CD010E945D2484
:10244000DA01C9018C879D87AE87BF8789818F5F3D
:1024500089838C859D85AE85BF850097A105B105D3
:1024600059F60FC08981815089838981282F30E0F6
:10247000CE010296FC01E20FF31F8081805D0E9475
:102480008F118981882371F72F960FB6F894DEBFDC
:102490000FBECDBFCF91DF911F910F910895DF93B4
:1024A000CF93CDB7DEB76C970FB6F894DEBF0FBEF3
:1024B000CDBF80E090E0A8E4B3E4898F9A8FAB8F22
:1024C000BC8F698D7A8D8B8D9C8D20E030E04AE742
:1024D00055E40E941F02DC01CB018D8B9E8BAF8BDC
:1024E000B88F6D897E898F89988D20E030E040E833
:1024F0005FE30E94250488232CF481E090E09C8B0C
:102500008B8B3FC06D897E898F89988D20E03FEF4E
:102510004FE757E40E94C50318164CF5698D7A8D74
:102520008B8D9C8D20E030E040E251E40E941F0240
:10253000DC01CB01BC01CD010E944900DC01CB01D3
:102540009C8B8B8B0FC080E991E09A8B898B89895A
:102550009A890197F1F79A8B898B8B899C890197CE
:102560009C8B8B8B8B899C89009769F714C06D8934
:102570007E898F89988D0E944900DC01CB019C8B5C
:102580008B8B8B899C89988B8F878F8598890197F6
:10259000F1F7988B8F8781E00E947D1180E090E0B9
:1025A000A8E4B3E48B879C87AD87BE876B857C8569
:1025B0008D859E8520E030E04AE755E40E941F02A9
:1025C000DC01CB018F839887A987BA876F817885D3
:1025D00089859A8520E030E040E85FE30E94250489
:1025E00088232CF481E090E09E838D833FC06F812F
:1025F000788589859A8520E03FEF4FE757E40E9470
:10260000C50318164CF56B857C858D859E8520E06D
:1026100030E040E251E40E941F02DC01CB01BC012A
:10262000CD010E944900DC01CB019E838D830FC048
:1026300080E991E09C838B838B819C810197F1F7EA
:102640009C838B838D819E8101979E838D838D8159
:102650009E81009769F714C06F81788589859A8576
:102660000E944900DC01CB019E838D838D819E8178
:102670009A83898389819A810197F1F79A83898363
:102680006C960FB6F894DEBF0FBECDBFCF91DF9131
:102690000895DF93CF9300D000D000D0CDB7DEB740
:1026A0008D836E8380E8898380EC8A8384E98B83C1
:1026B00084ED8C838D81282F30E0CE010196FC01C2
:1026C000E20FF31F90818E81890F0E947D11269663
:1026D0000FB6F894DEBF0FBECDBFCF91DF91089546
:1026E000DF93CF930F92CDB7DEB789838981982F7F
:1026F000991F9927991F81E064E0492F0E949D0747
:1027000089818295869586958370982F917081E056
:1027100062E0492F0E949D07898182958695877086
:10272000982F917081E061E0492F0E949D07898177
:1027300082958F70982F917081E060E0492F0E9400
:102740009D070E94CF138981869586958695982F3F
:10275000917081E064E0492F0E949D0789818695F0
:102760008695982F917081E062E0492F0E949D0725
:1027700089818695982F917081E061E0492F0E94B0
:102780009D078981982F917081E060E0492F0E9418
:102790009D070E94CF130F90CF91DF910895DF9393
:1027A000CF93CDB7DEB768970FB6F894DEBF0FBEF4
:1027B000CDBF80E062E041E00E949D0780E090E0B4
:1027C000A6E9B3E48D8B9E8BAF8BB88F6D897E8924
:1027D0008F89988D2BEA3AEA4AEA50E40E941F0258
:1027E000DC01CB01898B9A8BAB8BBC8B69897A8995
:1027F0008B899C8920E030E040E85FE30E9425045B
:1028000088231CF481E0888B91C069897A898B893F
:102810009C8920E030E04FE753E40E94C50318167E
:102820000CF07BC06D897E898F89988D20E030E027
:102830004AE754E40E941903DC01CB018C879D8791
:10284000AE87BF876C857D858E859F8520E030E0D3
:102850004AE755E40E941F02DC01CB018887998773
:10286000AA87BB87688579858A859B8520E030E0CB
:1028700040E85FE30E94250488232CF481E090E087
:102880009F838E833FC0688579858A859B8520E0FC
:102890003FEF4FE757E40E94C50318164CF56C85CF
:1028A0007D858E859F8520E030E040E251E40E94E6
:1028B0001F02DC01CB01BC01CD010E944900DC01FB
:1028C000CB019F838E830FC080E991E09D838C8331
:1028D0008C819D810197F1F79D838C838E819F81EF
:1028E00001979F838E838E819F81009769F724C013
:1028F000688579858A859B850E944900DC01CB012A
:102900009F838E838E819F819B838A838A819B8113
:102910000197F1F79B838A830FC069897A898B8934
:102920009C890E944900DC01CB01888B88898983BE
:1029300089818A95F1F7898380E062E040E00E9416
:102940009D0768960FB6F894DEBF0FBECDBFCF913E
:10295000DF910895DF93CF9300D0CDB7DEB70E940B
:10296000271B89838981882319F089818A8310C074
:1029700081E00E94F01A89838981882319F0898176
:102980008A8306C081E00E940219898389818A8333
:102990008A810F900F90CF91DF910895DF93CF93AD
:1029A00000D000D0CDB7DEB79B838A830E94271B5F
:1029B00089838981882319F089818C831BC081E0F8
:1029C0000E94F01A89838981882319F089818C8378
:1029D00011C08A819B8162E00E940B1789838981E3
:1029E000882319F089818C8305C00E94771689831A
:1029F00089818C838C810F900F900F900F90CF91D5
:102A0000DF910895DF93CF93CDB7DEB762970FB60E
:102A1000F894DEBF0FBECDBF998B888B80E090E02D
:102A2000AAEFB3E48B879C87AD87BE876B857C85D7
:102A30008D859E8520E030E04AE755E40E941F0224
:102A4000DC01CB018F839887A987BA876F8178854E
:102A500089859A8520E030E040E85FE30E94250404
:102A600088232CF481E090E09E838D833FC06F81AA
:102A7000788589859A8520E03FEF4FE757E40E94EB
:102A8000C50318164CF56B857C858D859E8520E0E9
:102A900030E040E251E40E941F02DC01CB01BC01A6
:102AA000CD010E944900DC01CB019E838D830FC0C4
:102AB00080E991E09C838B838B819C810197F1F766
:102AC0009C838B838D819E8101979E838D838D81D5
:102AD0009E81009769F714C06F81788589859A85F2
:102AE0000E944900DC01CB019E838D838D819E81F4
:102AF0009A83898389819A810197F1F79A838983DF
:102B00000E94BB1B8F878F85882319F08F858A8B46
:102B10003CC00E94271B8F878F85882319F08F85E3
:102B20008A8B33C081E00E94F01A8F878F858823BB
:102B300019F08F858A8B29C00E94271B8F878F856C
:102B4000882319F08F858A8B20C082E00E94F01ABA
:102B50008F878F85882319F08F858A8B16C00E94F6
:102B60005C1A8F878F85882319F08F858A8B0DC01B
:102B7000888999890E94B9198F878F85882319F0D0
:102B80008F858A8B02C08F858A8B8A8962960FB661
:102B9000F894DEBF0FBECDBFCF91DF910895DF93D4
:102BA000CF93CDB7DEB768970FB6F894DEBF0FBEF0
:102BB000CDBF8D8B6E8B4F8B288F80E090E0A8E48B
:102BC000B3E48B879C87AD87BE876B857C858D85BD
:102BD0009E8520E030E04AE755E40E941F02DC01B8
:102BE000CB018F839887A987BA876F81788589857C
:102BF0009A8520E030E040E85FE30E9425048823C6
:102C00002CF481E090E09E838D833FC06F817885B6
:102C100089859A8520E03FEF4FE757E40E94C5037E
:102C200018164CF56B857C858D859E8520E030E0FF
:102C300040E251E40E941F02DC01CB01BC01CD0146
:102C40000E944900DC01CB019E838D830FC080E987
:102C500091E09C838B838B819C810197F1F79C830E
:102C60008B838D819E8101979E838D838D819E8133
:102C7000009769F714C06F81788589859A850E94CD
:102C80004900DC01CB019E838D838D819E819A83D7
:102C9000898389819A810197F1F79A83898385E0F5
:102CA000FE017096DF01982F1D929A95E9F785E352
:102CB000888B8D89898B8E898A8B8F898B8B888D68
:102CC0008C8B9E01205F3F4F81E067E070E0A9019F
:102CD0000E944F1C0E94F51C8F878F8568960FB647
:102CE000F894DEBF0FBECDBFCF91DF910895DF9383
:102CF000CF93CDB7DEB760970FB6F894DEBF0FBEA7
:102D0000CDBF80E090E0A8E4B3E48B879C87AD87DB
:102D1000BE876B857C858D859E8520E030E04AE707
:102D200055E40E941F02DC01CB018F839887A9879D
:102D3000BA876F81788589859A8520E030E040E800
:102D40005FE30E94250488232CF481E090E09E83B9
:102D50008D833FC06F81788589859A8520E03FEF1C
:102D60004FE757E40E94C50318164CF56B857C8528
:102D70008D859E8520E030E040E251E40E941F02F4
:102D8000DC01CB01BC01CD010E944900DC01CB017B
:102D90009E838D830FC080E991E09C838B838B8120
:102DA0009C810197F1F79C838B838D819E81019794
:102DB0009E838D838D819E81009769F714C06F81FA
:102DC000788589859A850E944900DC01CB019E8324
:102DD0008D838D819E819A83898389819A810197D0
:102DE000F1F79A83898383E0888B9E01205F3F4FB0
:102DF00081E063E070E0A9010E944F1C0E94F51C75
:102E00008F878F8560960FB6F894DEBF0FBECDBF5B
:102E1000CF91DF910895DF93CF93CDB7DEB76A9757
:102E20000FB6F894DEBF0FBECDBF9F8B8E8B688F21
:102E300080E090E0A8E4B3E48B879C87AD87BE87F1
:102E40006B857C858D859E8520E030E04AE755E4E2
:102E50000E941F02DC01CB018F839887A987BA8764
:102E60006F81788589859A8520E030E040E85FE3CE
:102E70000E94250488232CF481E090E09E838D83BA
:102E80003FC06F81788589859A8520E03FEF4FE7C5
:102E900057E40E94C50318164CF56B857C858D851B
:102EA0009E8520E030E040E251E40E941F02DC01F8
:102EB000CB01BC01CD010E944900DC01CB019E8306
:102EC0008D830FC080E991E09C838B838B819C81F3
:102ED0000197F1F79C838B838D819E8101979E835F
:102EE0008D838D819E81009769F714C06F817885ED
:102EF00089859A850E944900DC01CB019E838D83E0
:102F00008D819E819A83898389819A810197F1F7C6
:102F10009A83898386E0FE017096DF01282F1D9237
:102F20002A95E9F787E0888B888DA82FB0E0BA8FC3
:102F3000A98F298D3A8D2130310531F0898D9A8DF7
:102F40008230910521F005C081E0898B02C082E0CA
:102F5000898B8E899F89892F99278A8B8E898B8B64
:102F60009E01205F3F4F81E066E070E0A9010E9472
:102F70004F1C0E94F51C8F878F856A960FB6F894B8
:102F8000DEBF0FBECDBFCF91DF910895DF93CF930A
:102F9000CDB7DEB766970FB6F894DEBF0FBECDBFD4
:102FA0009E8B8D8B80E090E0A8E4B3E48B879C87B8
:102FB000AD87BE876B857C858D859E8520E030E062
:102FC0004AE755E40E941F02DC01CB018F839887FA
:102FD000A987BA876F81788589859A8520E030E056
:102FE00040E85FE30E94250488232CF481E090E010
:102FF0009E838D833FC06F81788589859A8520E087
:103000003FEF4FE757E40E94C50318164CF56B8558
:103010007C858D859E8520E030E040E251E40E9471
:103020001F02DC01CB01BC01CD010E944900DC0183
:10303000CB019E838D830FC080E991E09C838B83BD
:103040008B819C810197F1F79C838B838D819E817D
:1030500001979E838D838D819E81009769F714C0AF
:103060006F81788589859A850E944900DC01CB01B2
:103070009E838D838D819E819A83898389819A81A4
:103080000197F1F79A83898385E0FE017096DF014D
:10309000982F1D929A95E9F78CE0888B8D899E89EF
:1030A000892F99278A8B8D898B8B1C8A81E08D8B48
:1030B0009E01205F3F4F81E067E070E0A9010E9420
:1030C0004F1C0E94F51C8F878F8566960FB6F8946B
:1030D000DEBF0FBECDBFCF91DF910895DF93CF93B9
:1030E000CDB7DEB760970FB6F894DEBF0FBECDBF89
:1030F00080E090E0A8E4B3E48B879C87AD87BE872F
:103100006B857C858D859E8520E030E04AE755E41F
:103110000E941F02DC01CB018F839887A987BA87A1
:103120006F81788589859A8520E030E040E85FE30B
:103130000E94250488232CF481E090E09E838D83F7
:103140003FC06F81788589859A8520E03FEF4FE702
:1031500057E40E94C50318164CF56B857C858D8558
:103160009E8520E030E040E251E40E941F02DC0135
:10317000CB01BC01CD010E944900DC01CB019E8343
:103180008D830FC080E991E09C838B838B819C8130
:103190000197F1F79C838B838D819E8101979E839C
:1031A0008D838D819E81009769F714C06F8178852A
:1031B00089859A850E944900DC01CB019E838D831D
:1031C0008D819E819A83898389819A810197F1F704
:1031D0009A8389838DE0888B9E01205F3F4F81E039
:1031E00063E070E0A9010E944F1C0E94F51C8F87CC
:1031F0008F8560960FB6F894DEBF0FBECDBFCF911E
:10320000DF910895DF93CF93CDB7DEB768970FB600
:10321000F894DEBF0FBECDBF8E8B80E090E0A8E4B7
:10322000B3E48B879C87AD87BE876B857C858D8556
:103230009E8520E030E04AE755E40E941F02DC0151
:10324000CB018F839887A987BA876F817885898515
:103250009A8520E030E040E85FE30E94250488235F
:103260002CF481E090E09E838D833FC06F81788550
:1032700089859A8520E03FEF4FE757E40E94C50318
:1032800018164CF56B857C858D859E8520E030E099
:1032900040E251E40E941F02DC01CB01BC01CD01E0
:1032A0000E944900DC01CB019E838D830FC080E921
:1032B00091E09C838B838B819C810197F1F79C83A8
:1032C0008B838D819E8101979E838D838D819E81CD
:1032D000009769F714C06F81788589859A850E9467
:1032E0004900DC01CB019E838D838D819E819A8371
:1032F000898389819A810197F1F79A83898386E08E
:10330000FE017096DF01282F1D922A95E9F784E0CF
:10331000888B8E89A82FB0E0B88FAF8B2F89388D1E
:103320002130310531F08F89988D8230910521F05F
:1033300005C081E0898B02C082E0898B1A8A1B8AD2
:103340001C8A8FEF8D8B9E01205F3F4F81E068E0EC
:1033500070E0A9010E944F1C0E94F51C8F878F8589
:1033600068960FB6F894DEBF0FBECDBFCF91DF9148
:103370000895DF93CF93CDB7DEB765970FB6F89476
:10338000DEBF0FBECDBF9D8B8C8B80E090E0A8E4AC
:10339000B3E48B879C87AD87BE876B857C858D85E5
:1033A0009E8520E030E04AE755E40E941F02DC01E0
:1033B000CB018F839887A987BA876F8178858985A4
:1033C0009A8520E030E040E85FE30E9425048823EE
:1033D0002CF481E090E09E838D833FC06F817885DF
:1033E00089859A8520E03FEF4FE757E40E94C503A7
:1033F00018164CF56B857C858D859E8520E030E028
:1034000040E251E40E941F02DC01CB01BC01CD016E
:103410000E944900DC01CB019E838D830FC080E9AF
:1034200091E09C838B838B819C810197F1F79C8336
:103430008B838D819E8101979E838D838D819E815B
:10344000009769F714C06F81788589859A850E94F5
:103450004900DC01CB019E838D838D819E819A83FF
:10346000898389819A810197F1F79A838983188AE0
:10347000198A1A8A1B8A86E0888B81E0898B8C895D
:103480009D89892F99278A8B8C898B8B9E01205F40
:103490003F4F81E066E070E0A9010E944F1C0E944E
:1034A000F51C8F878F8565960FB6F894DEBF0FBE2B
:1034B000CDBFCF91DF910895DF93CF93CDB7DEB726
:1034C00060970FB6F894DEBF0FBECDBF80E090E0EE
:1034D000A8E4B3E48B879C87AD87BE876B857C852A
:1034E0008D859E8520E030E04AE755E40E941F026A
:1034F000DC01CB018F839887A987BA876F81788594
:1035000089859A8520E030E040E85FE30E94250449
:1035100088232CF481E090E09E838D833FC06F81EF
:10352000788589859A8520E03FEF4FE757E40E9430
:10353000C50318164CF56B857C858D859E8520E02E
:1035400030E040E251E40E941F02DC01CB01BC01EB
:10355000CD010E944900DC01CB019E838D830FC009
:1035600080E991E09C838B838B819C810197F1F7AB
:103570009C838B838D819E8101979E838D838D811A
:103580009E81009769F714C06F81788589859A8537
:103590000E944900DC01CB019E838D838D819E8139
:1035A0009A83898389819A810197F1F79A83898324
:1035B00085E0888B9E01205F3F4F81E063E070E0F3
:1035C000A9010E944F1C0E94F51C8F878F85609671
:1035D0000FB6F894DEBF0FBECDBFCF91DF91089537
:1035E000DF93CF9300D000D000D0CDB7DEB78C836F
:1035F0001B821A8282E08A838C81282F30E03E83EE
:103600002D838D819E818130910531F02D813E8108
:103610002230310521F005C081E08B8302C082E0B9
:103620008B839E012E5F3F4F81E064E070E0A90133
:103630000E944F1C0E94F51C8983898126960FB633
:10364000F894DEBF0FBECDBFCF91DF910895DF9319
:10365000CF93CDB7DEB760970FB6F894DEBF0FBE3D
:10366000CDBF80E090E0A8E4B3E48B879C87AD8772
:10367000BE876B857C858D859E8520E030E04AE79E
:1036800055E40E941F02DC01CB018F839887A98734
:10369000BA876F81788589859A8520E030E040E897
:1036A0005FE30E94250488232CF481E090E09E8350
:1036B0008D833FC06F81788589859A8520E03FEFB3
:1036C0004FE757E40E94C50318164CF56B857C85BF
:1036D0008D859E8520E030E040E251E40E941F028B
:1036E000DC01CB01BC01CD010E944900DC01CB0112
:1036F0009E838D830FC080E991E09C838B838B81B7
:103700009C810197F1F79C838B838D819E8101972A
:103710009E838D838D819E81009769F714C06F8190
:10372000788589859A850E944900DC01CB019E83BA
:103730008D838D819E819A83898389819A81019766
:10374000F1F79A83898381E0888B9E01205F3F4F48
:1037500081E063E070E0A9010E944F1C0E94F51C0B
:103760008F878F8560960FB6F894DEBF0FBECDBFF2
:10377000CF91DF910895DF93CF93CDB7DEB76097F8
:103780000FB6F894DEBF0FBECDBF80E090E0A8E496
:10379000B3E48B879C87AD87BE876B857C858D85E1
:1037A0009E8520E030E04AE755E40E941F02DC01DC
:1037B000CB018F839887A987BA876F8178858985A0
:1037C0009A8520E030E040E85FE30E9425048823EA
:1037D0002CF481E090E09E838D833FC06F817885DB
:1037E00089859A8520E03FEF4FE757E40E94C503A3
:1037F00018164CF56B857C858D859E8520E030E024
:1038000040E251E40E941F02DC01CB01BC01CD016A
:103810000E944900DC01CB019E838D830FC080E9AB
:1038200091E09C838B838B819C810197F1F79C8332
:103830008B838D819E8101979E838D838D819E8157
:10384000009769F714C06F81788589859A850E94F1
:103850004900DC01CB019E838D838D819E819A83FB
:10386000898389819A810197F1F79A83898380E41A
:10387000888B9E01205F3F4F81E063E070E0A901EB
:103880000E944F1C0E94F51C8F878F8560960FB693
:10389000F894DEBF0FBECDBFCF91DF910895DF93C7
:1038A000CF93CDB7DEB728970FB6F894DEBF0FBE23
:1038B000CDBF8C837E836D8358874F838FEE0E94AC
:1038C0001E0C81E00E941E0C8FEF0E941E0C8FEFD9
:1038D0000E941E0C8FEF0E941E0C8FEF0E941E0C88
:1038E0008C810E941E0C8D819E81892F99270E94B8
:1038F0001E0C8D810E941E0C19820EC08981282FFA
:1039000030E08F819885FC01E20FF31F80810E94D7
:103910001E0C89818F5F89838981282F30E08D81FA
:10392000882F90E002972817390744F32D813E81B4
:103930004F8158858C81B9010E94B21C9B838A8378
:103940008A819B81892F99270E941E0C8A810E945F
:103950001E0C28960FB6F894DEBF0FBECDBFCF91D8
:10396000DF910895DF93CF93CDB7DEB728970FB6D9
:10397000F894DEBF0FBECDBF8C837E836D835887E6
:103980004F838C81282F30E08D819E81820F931F81
:103990009B838A83198214C08981282F30E08F810C
:1039A0009885FC01E20FF31F8081282F30E08A8187
:1039B0009B81820F931F9B838A8389818F5F898379
:1039C0008981282F30E08D81882F90E00297281779
:1039D000390714F38A819B8128960FB6F894DEBFCD
:1039E0000FBECDBFCF91DF910895DF93CF93CDB7B9
:1039F000DEB72D970FB6F894DEBF0FBECDBFCE0158
:103A000002966CE00E940B0D8B85898389812D962F
:103A10000FB6F894DEBF0FBECDBFCF91DF910895F2
:103A20000F931F93DF93CF93CDB7DEB7CD58D04020
:103A30000FB6F894DEBF0FBECDBF0E94BF0B0E9431
:103A4000320EFE01E357FF4F8FEF808382E06DE778
:103A500042E02DE70E94CF150E944F1280E690E0D1
:103A60000E94A1110E944F1282E790E00E94A111D2
:103A7000FE01E757FF4F80E090E0AAE7B4E48083BF
:103A80009183A283B3838E010B571F4FFE01E7572B
:103A9000FF4F608171818281938120E030E04AE7AD
:103AA00055E40E941F02DC01CB01F8018083918361
:103AB000A283B383FE01EB57FF4F60817181828146
:103AC000938120E030E040E85FE30E9425048823F2
:103AD00044F4FE01ED57FF4F81E090E09183808335
:103AE00064C0FE01EB57FF4F608171818281938139
:103AF00020E03FEF4FE757E40E94C50318160CF093
:103B000043C0FE01E757FF4F60817181828193813D
:103B100020E030E040E251E40E941F02DC01CB01D2
:103B20008E010D571F4FBC01CD010E944900DC01E1
:103B3000CB01F801918380831FC0FE01EF57FF4F37
:103B400080E991E091838083FE01EF57FF4F8081F0
:103B500091810197F1F7FE01EF57FF4F9183808329
:103B6000DE01AD57BF4FFE01ED57FF4F80819181C0
:103B7000019711969C938E93FE01ED57FF4F808124
:103B800091810097D1F627C08E010D571F4FFE017E
:103B9000EB57FF4F60817181828193810E944900C0
:103BA000DC01CB01F80191838083DE01A158BF4F76
:103BB000FE01ED57FF4F808191818D939C93FE0113
:103BC000E158FF4F808191810197F1F7FE01E158A3
:103BD000FF4F9183808384E090E00E940215FE01F4
:103BE000E357FF4F8083FE01E357FF4F8081882317
:103BF00009F027C2FE01E558FF4F80E090E0A8E4FD
:103C0000B3E480839183A283B3838E0109581F4F4D
:103C1000FE01E558FF4F608171818281938120E030
:103C200030E04AE755E40E941F02DC01CB01F801B5
:103C300080839183A283B383FE01E958FF4F6081A3
:103C400071818281938120E030E040E85FE30E944F
:103C50002504882344F4FE01EB58FF4F81E090E0F7
:103C60009183808364C0FE01E958FF4F60817181B8
:103C70008281938120E03FEF4FE757E40E94C50324
:103C800018160CF043C0FE01E558FF4F60817181AA
:103C90008281938120E030E040E251E40E941F02E3
:103CA000DC01CB018E010B581F4FBC01CD010E94DE
:103CB0004900DC01CB01F801918380831FC0FE0124
:103CC000ED58FF4F80E991E091838083FE01ED582C
:103CD000FF4F808191810197F1F7FE01ED58FF4F71
:103CE00091838083DE01AB58BF4FFE01EB58FF4F3D
:103CF00080819181019711969C938E93FE01EB58E0
:103D0000FF4F808191810097D1F627C08E010B581B
:103D10001F4FFE01E958FF4F6081718182819381BD
:103D20000E944900DC01CB01F80191838083DE0110
:103D3000AF58BF4FFE01EB58FF4F808191818D93AB
:103D40009C93FE01EF58FF4F808191810197F1F71D
:103D5000FE01EF58FF4F918380830E944F12FE01B6
:103D6000E359FF4F80E090E0AAEFB3E480839183B2
:103D7000A283B3838E0107591F4FFE01E359FF4F02
:103D8000608171818281938120E030E04AE755E4CF
:103D90000E941F02DC01CB01F80180839183A28382
:103DA000B383FE01E759FF4F608171818281938166
:103DB00020E030E040E85FE30E942504882344F4DB
:103DC000FE01E959FF4F81E090E09183808364C058
:103DD000FE01E759FF4F608171818281938120E06C
:103DE0003FEF4FE757E40E94C50318160CF043C09D
:103DF000FE01E359FF4F608171818281938120E050
:103E000030E040E251E40E941F02DC01CB018E0150
:103E100009591F4FBC01CD010E944900DC01CB01B3
:103E2000F801918380831FC0FE01EB59FF4F80E9A9
:103E300091E091838083FE01EB59FF4F8081918156
:103E40000197F1F7FE01EB59FF4F91838083DE016B
:103E5000A959BF4FFE01E959FF4F80819181019718
:103E600011969C938E93FE01E959FF4F80819181B9
:103E70000097D1F627C08E0109591F4FFE01E7595F
:103E8000FF4F60817181828193810E944900DC0132
:103E9000CB01F80191838083DE01AD59BF4FFE0154
:103EA000E959FF4F808191818D939C93FE01ED59DB
:103EB000FF4F808191810197F1F7FE01ED59FF4F8E
:103EC0009183808383E890E00E94A11182E06DE7F6
:103ED00043E02DE70E94CF15FE01E15AFF4F80E03D
:103EE00090E0AAEFB4E480839183A283B3838E0130
:103EF000055A1F4FFE01E15AFF4F60817181828197
:103F0000938120E030E04AE755E40E941F02DC0183
:103F1000CB01F80180839183A283B383FE01E55A2C
:103F2000FF4F608171818281938120E030E040E821
:103F30005FE30E942504882344F4FE01E75AFF4F03
:103F400081E090E09183808364C0FE01E55AFF4FD9
:103F5000608171818281938120E03FEF4FE757E4D8
:103F60000E94C50318160CF043C0FE01E15AFF4F32
:103F7000608171818281938120E030E040E251E4F0
:103F80000E941F02DC01CB018E01075A1F4FBC01AA
:103F9000CD010E944900DC01CB01F80191838083AF
:103FA0001FC0FE01E95AFF4F80E991E091838083B1
:103FB000FE01E95AFF4F808191810197F1F7FE01DF
:103FC000E95AFF4F91838083DE01A75ABF4FFE015C
:103FD000E75AFF4F80819181019711969C938E93B0
:103FE000FE01E75AFF4F808191810097D1F6EEC024
:103FF0008E01075A1F4FFE01E55AFF4F6081718104
:10400000828193810E944900DC01CB01F8019183F8
:104010008083DE01AB5ABF4FFE01E75AFF4F80811C
:10402000918111969C938E93FE01EB5AFF4F8081F4
:1040300091810197F1F7FE01EB5AFF4F9183808345
:10404000C5C00E944F1282E06DE741E02DE70E945B
:10405000CF1586E990E00E94A111FE01EF5AFF4FB3
:1040600080E090E8ABEBB4E480839183A283B383D8
:104070008E01035B1F4FFE01EF5AFF4F608171817C
:104080008281938120E030E04AE755E40E941F02DC
:10409000DC01CB01F80180839183A283B383FE010D
:1040A000E35BFF4F608171818281938120E030E08A
:1040B00040E85FE30E942504882344F4FE01E55BA9
:1040C000FF4F81E090E09183808364C0FE01E35B59
:1040D000FF4F608171818281938120E03FEF4FE744
:1040E00057E40E94C50318160CF043C0FE01EF5AB6
:1040F000FF4F608171818281938120E030E040E256
:1041000051E40E941F02DC01CB018E01055B1F4FB1
:10411000BC01CD010E944900DC01CB01F801918373
:1041200080831FC0FE01E75BFF4F80E991E0918330
:104130008083FE01E75BFF4F808191810197F1F75A
:10414000FE01E75BFF4F91838083DE01A55BBF4FDC
:10415000FE01E55BFF4F80819181019711969C9351
:104160008E93FE01E55BFF4F808191810097D1F630
:1041700027C08E01055B1F4FFE01E35BFF4F60818F
:104180007181828193810E944900DC01CB01F80199
:1041900091838083DE01A95BBF4FFE01E55BFF4F8A
:1041A000808191818D939C93FE01E95BFF4F80811B
:1041B00091810197F1F7FE01E95BFF4F91838083C5
:1041C000FE01E357FF4F80810E945723FE01ED5B04
:1041D000FF4F80E090E8ABEBB4E480839183A2834F
:1041E000B3838E01015C1F4FFE01ED5BFF4F6081C9
:1041F00071818281938120E030E04AE755E40E949A
:104200001F02DC01CB01F80180839183A283B38379
:10421000FE01FF96608171818281938120E030E010
:1042200040E85FE30E94250488232CF481E090E0BD
:104230009EAF8DAF46C0FE01FF9660817181828185
:10424000938120E03FEF4FE757E40E94C503181623
:1042500064F5FE01ED5BFF4F608171818281938186
:1042600020E030E040E251E40E941F02DC01CB017B
:10427000BC01CD010E944900DC01CB019EAF8DAF96
:104280000FC080E991E09CAF8BAF8BAD9CAD0197E7
:10429000F1F79CAF8BAF8DAD9EAD01979EAF8DAF0B
:1042A0008DAD9EAD009769F716C0FE01FF96608147
:1042B0007181828193810E944900DC01CB019EAF14
:1042C0008DAF8DAD9EAD9AAF89AF89AD9AAD019797
:1042D000F1F79AAF89AF0E944F1286EA90E00E94F0
:1042E000A11180E090E8ABEBB4E48DAB9EABAFAB3B
:1042F000B8AF6DA97EA98FA998AD20E030E04AE75C
:1043000055E40E941F02DC01CB0189AB9AABABAB39
:10431000BCAB69A97AA98BA99CA920E030E040E850
:104320005FE30E94250488232CF481E090E098ABA1
:104330008FA73FC069A97AA98BA99CA920E03FEF6C
:104340004FE757E40E94C50318164CF56DA97EA9E6
:104350008FA998AD20E030E040E251E40E941F02B6
:10436000DC01CB01BC01CD010E944900DC01CB0185
:1043700098AB8FA70FC080E991E09EA78DA78DA570
:104380009EA50197F1F79EA78DA78FA598A90197E4
:1043900098AB8FA78FA598A9009769F714C069A952
:1043A0007AA98BA99CA90E944900DC01CB0198AB9A
:1043B0008FA78FA598A99CA78BA78BA59CA50197D4
:1043C000F1F79CA78BA782E790E00E94A11180E003
:1043D00090E8ABEBB4E48FA398A7A9A7BAA76FA105
:1043E00078A589A59AA520E030E04AE755E40E9427
:1043F0001F02DC01CB018BA39CA3ADA3BEA36BA1C9
:104400007CA18DA19EA120E030E040E85FE30E9406
:10441000250488232CF481E090E09AA389A33FC06F
:104420006BA17CA18DA19EA120E03FEF4FE757E457
:104430000E94C50318164CF56FA178A589A59AA509
:1044400020E030E040E251E40E941F02DC01CB0199
:10445000BC01CD010E944900DC01CB019AA389A3D4
:104460000FC080E991E098A38F8F8F8D98A101975D
:10447000F1F798A38F8F89A19AA101979AA389A395
:1044800089A19AA1009769F714C06BA17CA18DA1A5
:104490009EA10E944900DC01CB019AA389A389A1B6
:1044A0009AA19E8F8D8F8D8D9E8D0197F1F79E8F96
:1044B0008D8F84E00E940219FE01E357FF4F808335
:1044C000FE01E357FF4F8081882309F079C00E94E5
:1044D0004F1284EB90E00E94A11180E090E8ABEBDA
:1044E000B4E4898F9A8FAB8FBC8F698D7A8D8B8D59
:1044F0009C8D20E030E04AE755E40E941F02DC0179
:10450000CB018D8B9E8BAF8BB88F6D897E898F8908
:10451000988D20E030E040E85FE30E942504882386
:104520002CF481E090E09C8B8B8B3FC06D897E8961
:104530008F89988D20E03FEF4FE757E40E94C50335
:1045400018164CF5698D7A8D8B8D9C8D20E030E0AE
:1045500040E251E40E941F02DC01CB01BC01CD010D
:104560000E944900DC01CB019C8B8B8B0FC080E942
:1045700091E09A8B898B89899A890197F1F79A8BB7
:10458000898B8B899C8901979C8B8B8B8B899C89D0
:10459000009769F756CA6D897E898F89988D0E9428
:1045A0004900DC01CB019C8B8B8B8B899C89988B80
:1045B0008F878F8598890197F1F7988B8F8741CAEC
:1045C00081EC90E00E94A11180E090E8ABEBB4E4B4
:1045D0008B879C87AD87BE876B857C858D859E8507
:1045E00020E030E04AE755E40E941F02DC01CB01E5
:1045F0008F839887A987BA876F81788589859A85FF
:1046000020E030E040E85FE30E94250488232CF49A
:1046100081E090E09E838D833FC06F81788589859E
:104620009A8520E03FEF4FE757E40E94C503181634
:104630004CF56B857C858D859E8520E030E040E2E1
:1046400051E40E941F02DC01CB01BC01CD010E949C
:104650004900DC01CB019E838D830FC080E991E08E
:104660009C838B838B819C810197F1F79C838B8347
:104670008D819E8101979E838D838D819E81009780
:1046800069F7DFC96F81788589859A850E9449001D
:10469000DC01CB019E838D838D819E819A838983EA
:1046A00089819A810197F1F79A838983CAC9DF9337
:1046B000CF93CDB7DEB761970FB6F894DEBF0FBECC
:1046C000CDBF8F870E944F128F85282F30E0398B06
:1046D000288B888999898730910509F456C02889E3
:1046E000398928303105E4F4888999898230910527
:1046F00009F43CC0288939892330310534F488898C
:1047000099898130910569F15DC028893989233003
:10471000310589F1888999898630910589F152C0DE
:10472000288939892A30310509F43EC08889998958
:104730008B3091055CF4288939892830310551F195
:10474000888999898930910551F13CC02889398936
:104750002031310599F1888999898131910549F193
:1047600031C08EEC90E00E94A1112CC088EF90E047
:104770000E94A11127C08CE191E00E94A11122C0EA
:1047800081E491E00E94A1111DC08EE691E00E949B
:10479000A11118C08BE991E00E94A11113C089EB0F
:1047A00091E00E94A1110EC08FED91E00E94A11135
:1047B00009C085E092E00E94A11104C08CE292E061
:1047C0000E94A11180E090E8ABEBB4E48B879C875A
:1047D000AD87BE876B857C858D859E8520E030E02A
:1047E0004AE755E40E941F02DC01CB018F839887C2
:1047F000A987BA876F81788589859A8520E030E01E
:1048000040E85FE30E94250488232CF481E090E0D7
:104810009E838D833FC06F81788589859A8520E04E
:104820003FEF4FE757E40E94C50318164CF56B8520
:104830007C858D859E8520E030E040E251E40E9439
:104840001F02DC01CB01BC01CD010E944900DC014B
:10485000CB019E838D830FC080E991E09C838B8385
:104860008B819C810197F1F79C838B838D819E8145
:1048700001979E838D838D819E81009769F714C077
:104880006F81788589859A850E944900DC01CB017A
:104890009E838D838D819E819A83898389819A816C
:1048A0000197F1F79A83898361960FB6F894DEBF7A
:1048B0000FBECDBFCF91DF91089597FB092E05263E
:1048C0000ED057FD04D014D00AD0001C38F45095F7
:1048D0004095309521953F4F4F4F5F4F0895F6F724
:1048E00090958095709561957F4F8F4F9F4F08955C
:1048F000A1E21A2EAA1BBB1BFD010DC0AA1FBB1FE4
:10490000EE1FFF1FA217B307E407F50720F0A21B55
:10491000B30BE40BF50B661F771F881F991F1A94C2
:1049200069F760957095809590959B01AC01BD01EC
:10493000CF0108952F923F924F925F926F927F9294
:104940008F929F92AF92BF92CF92DF92EF92FF929F
:104950000F931F93CF93DF93CDB7DEB7CA1BDB0B4B
:104960000FB6F894DEBF0FBECDBF09942A883988F0
:1049700048885F846E847D848C849B84AA84B984F7
:10498000C884DF80EE80FD800C811B81AA81B98103
:10499000CE0FD11D0FB6F894DEBF0FBECDBFED0117
:0649A0000895F894FFCF1A
:1049A60020456E726F6C6C6D656E742070686173F5
:1049B600650050757420796F75722066696E67653B
:1049C600722000656E726F6C6C6D656E7420537527
:1049D600636365737300656E726F6C6C6D656E7480
:1049E600206661696C00206E6F77206D6174636864
:1049F600696E67006D61746368696E67204F4B204E
:104A060000204E4F206D61746368696E67005235F1
:104A160030335F4552524F525F5748454E5F5245BD
:104A260043454956494E475F444154415F504143CF
:104A36004B41474520200900523530335F4E4F5FCA
:104A460046494E4745525F4F4E5F5448455F534572
:104A56004E534F52090909202020090052353033A0
:104A66005F4641494C5F544F5F454E524F4C4C5F39
:104A76005448455F46494E474552090909202009D1
:104A860000523530335F4641494C5F544F5F4745CE
:104A96004E5F434841525F46494C455F4455455F2A
:104AA600544F5F4449534F524445524C5900523576
:104AB60030335F4641494C5F544F5F47454E5F4335
:104AC6004841525F46494C455F4455455F544F5FE8
:104AD6004C41434B4E455353202000523530335FF3
:104AE60046494E4745525F444F5F4E4F545F4D41D6
:104AF600544348090909090900523530335F4641D4
:104B0600494C5F544F5F46494E445F5448455F4D9C
:104B1600415443485F46494E4745520909090052E8
:104B26003530335F4641494C5F544F5F434F4D42EA
:104B3600494E455F5448455F434841525F46494C9C
:104B46004509090900523530335F4641494C5F54E7
:104B56004F5F434C4541525F5448455F46494E4777
:104B660045525F4C4942090920200900523530332D
:104B76005F4641494C5F544F5F44454C4554455F41
:104B86005448455F54454D504C4154450909202031
:0A4B9600090000000000000000000C
:00000001FF
